{
  "_format": "hh-sol-artifact-1",
  "contractName": "PrisonersDilemma",
  "sourceName": "contracts/PrisonersDilemma.sol",
  "abi": [
    {
      "inputs": [],
      "stateMutability": "nonpayable",
      "type": "constructor"
    },
    {
      "anonymous": false,
      "inputs": [
        {
          "indexed": true,
          "internalType": "address",
          "name": "oracle",
          "type": "address"
        }
      ],
      "name": "ComputationOracleSet",
      "type": "event"
    },
    {
      "anonymous": false,
      "inputs": [
        {
          "indexed": true,
          "internalType": "uint256",
          "name": "tournamentId",
          "type": "uint256"
        },
        {
          "indexed": false,
          "internalType": "address[]",
          "name": "winners",
          "type": "address[]"
        },
        {
          "indexed": false,
          "internalType": "uint256[]",
          "name": "prizes",
          "type": "uint256[]"
        }
      ],
      "name": "ResultsPublished",
      "type": "event"
    },
    {
      "anonymous": false,
      "inputs": [
        {
          "indexed": true,
          "internalType": "address",
          "name": "player",
          "type": "address"
        },
        {
          "indexed": false,
          "internalType": "uint256",
          "name": "tournamentId",
          "type": "uint256"
        }
      ],
      "name": "StrategySubmitted",
      "type": "event"
    },
    {
      "anonymous": false,
      "inputs": [
        {
          "indexed": true,
          "internalType": "uint256",
          "name": "tournamentId",
          "type": "uint256"
        }
      ],
      "name": "TournamentCreated",
      "type": "event"
    },
    {
      "anonymous": false,
      "inputs": [
        {
          "indexed": true,
          "internalType": "uint256",
          "name": "tournamentId",
          "type": "uint256"
        }
      ],
      "name": "TournamentFinished",
      "type": "event"
    },
    {
      "anonymous": false,
      "inputs": [
        {
          "indexed": true,
          "internalType": "uint256",
          "name": "tournamentId",
          "type": "uint256"
        },
        {
          "indexed": false,
          "internalType": "uint256",
          "name": "rounds",
          "type": "uint256"
        }
      ],
      "name": "TournamentRoundsSet",
      "type": "event"
    },
    {
      "anonymous": false,
      "inputs": [
        {
          "indexed": true,
          "internalType": "uint256",
          "name": "tournamentId",
          "type": "uint256"
        },
        {
          "indexed": false,
          "internalType": "uint256",
          "name": "playerCount",
          "type": "uint256"
        }
      ],
      "name": "TournamentStarted",
      "type": "event"
    },
    {
      "anonymous": false,
      "inputs": [
        {
          "indexed": true,
          "internalType": "uint256",
          "name": "tournamentId",
          "type": "uint256"
        },
        {
          "indexed": true,
          "internalType": "address",
          "name": "voter",
          "type": "address"
        },
        {
          "indexed": false,
          "internalType": "uint256",
          "name": "currentVotes",
          "type": "uint256"
        },
        {
          "indexed": false,
          "internalType": "uint256",
          "name": "requiredVotes",
          "type": "uint256"
        }
      ],
      "name": "VoteCast",
      "type": "event"
    },
    {
      "inputs": [],
      "name": "DEFAULT_ROUNDS",
      "outputs": [
        {
          "internalType": "uint256",
          "name": "",
          "type": "uint256"
        }
      ],
      "stateMutability": "view",
      "type": "function"
    },
    {
      "inputs": [],
      "name": "ENTRY_FEE",
      "outputs": [
        {
          "internalType": "uint256",
          "name": "",
          "type": "uint256"
        }
      ],
      "stateMutability": "view",
      "type": "function"
    },
    {
      "inputs": [],
      "name": "MAX_ROUNDS",
      "outputs": [
        {
          "internalType": "uint256",
          "name": "",
          "type": "uint256"
        }
      ],
      "stateMutability": "view",
      "type": "function"
    },
    {
      "inputs": [],
      "name": "MAX_RULES",
      "outputs": [
        {
          "internalType": "uint256",
          "name": "",
          "type": "uint256"
        }
      ],
      "stateMutability": "view",
      "type": "function"
    },
    {
      "inputs": [],
      "name": "MIN_ROUNDS",
      "outputs": [
        {
          "internalType": "uint256",
          "name": "",
          "type": "uint256"
        }
      ],
      "stateMutability": "view",
      "type": "function"
    },
    {
      "inputs": [],
      "name": "VOTE_QUORUM",
      "outputs": [
        {
          "internalType": "uint256",
          "name": "",
          "type": "uint256"
        }
      ],
      "stateMutability": "view",
      "type": "function"
    },
    {
      "inputs": [],
      "name": "WINNER_PERCENTAGE",
      "outputs": [
        {
          "internalType": "uint256",
          "name": "",
          "type": "uint256"
        }
      ],
      "stateMutability": "view",
      "type": "function"
    },
    {
      "inputs": [],
      "name": "computationOracle",
      "outputs": [
        {
          "internalType": "address",
          "name": "",
          "type": "address"
        }
      ],
      "stateMutability": "view",
      "type": "function"
    },
    {
      "inputs": [],
      "name": "currentTournament",
      "outputs": [
        {
          "internalType": "uint256",
          "name": "tournamentId",
          "type": "uint256"
        },
        {
          "internalType": "enum PrisonersDilemma.TournamentStatus",
          "name": "status",
          "type": "uint8"
        },
        {
          "internalType": "uint256",
          "name": "startTime",
          "type": "uint256"
        },
        {
          "internalType": "uint256",
          "name": "playerCount",
          "type": "uint256"
        },
        {
          "internalType": "uint256",
          "name": "totalGames",
          "type": "uint256"
        },
        {
          "internalType": "uint256",
          "name": "rounds",
          "type": "uint256"
        },
        {
          "internalType": "uint256",
          "name": "prizePool",
          "type": "uint256"
        }
      ],
      "stateMutability": "view",
      "type": "function"
    },
    {
      "inputs": [],
      "name": "currentTournamentId",
      "outputs": [
        {
          "internalType": "uint256",
          "name": "",
          "type": "uint256"
        }
      ],
      "stateMutability": "view",
      "type": "function"
    },
    {
      "inputs": [],
      "name": "forceStartTournament",
      "outputs": [],
      "stateMutability": "nonpayable",
      "type": "function"
    },
    {
      "inputs": [
        {
          "internalType": "address",
          "name": "player",
          "type": "address"
        }
      ],
      "name": "getEncryptedStrategyForComputation",
      "outputs": [
        {
          "internalType": "bytes32",
          "name": "encryptedActions",
          "type": "bytes32"
        },
        {
          "internalType": "enum PrisonersDilemma.ConditionSubject[]",
          "name": "subjects",
          "type": "uint8[]"
        },
        {
          "internalType": "enum PrisonersDilemma.ConditionOperator[]",
          "name": "operators",
          "type": "uint8[]"
        },
        {
          "internalType": "uint256[]",
          "name": "values",
          "type": "uint256[]"
        }
      ],
      "stateMutability": "view",
      "type": "function"
    },
    {
      "inputs": [
        {
          "internalType": "uint256",
          "name": "tournamentId",
          "type": "uint256"
        },
        {
          "internalType": "address",
          "name": "player",
          "type": "address"
        }
      ],
      "name": "getPlayerScore",
      "outputs": [
        {
          "internalType": "uint256",
          "name": "",
          "type": "uint256"
        }
      ],
      "stateMutability": "view",
      "type": "function"
    },
    {
      "inputs": [
        {
          "internalType": "address",
          "name": "player",
          "type": "address"
        }
      ],
      "name": "getStrategy",
      "outputs": [
        {
          "internalType": "enum PrisonersDilemma.ConditionSubject[]",
          "name": "subjects",
          "type": "uint8[]"
        },
        {
          "internalType": "enum PrisonersDilemma.ConditionOperator[]",
          "name": "operators",
          "type": "uint8[]"
        },
        {
          "internalType": "uint256[]",
          "name": "values",
          "type": "uint256[]"
        },
        {
          "internalType": "bool",
          "name": "isSubmitted",
          "type": "bool"
        }
      ],
      "stateMutability": "view",
      "type": "function"
    },
    {
      "inputs": [
        {
          "internalType": "uint256",
          "name": "tournamentId",
          "type": "uint256"
        }
      ],
      "name": "getTournament",
      "outputs": [
        {
          "components": [
            {
              "internalType": "uint256",
              "name": "tournamentId",
              "type": "uint256"
            },
            {
              "internalType": "enum PrisonersDilemma.TournamentStatus",
              "name": "status",
              "type": "uint8"
            },
            {
              "internalType": "uint256",
              "name": "startTime",
              "type": "uint256"
            },
            {
              "internalType": "uint256",
              "name": "playerCount",
              "type": "uint256"
            },
            {
              "internalType": "uint256",
              "name": "totalGames",
              "type": "uint256"
            },
            {
              "internalType": "uint256",
              "name": "rounds",
              "type": "uint256"
            },
            {
              "internalType": "uint256",
              "name": "prizePool",
              "type": "uint256"
            }
          ],
          "internalType": "struct PrisonersDilemma.TournamentInfo",
          "name": "",
          "type": "tuple"
        }
      ],
      "stateMutability": "view",
      "type": "function"
    },
    {
      "inputs": [],
      "name": "getTournamentInfo",
      "outputs": [
        {
          "components": [
            {
              "internalType": "uint256",
              "name": "tournamentId",
              "type": "uint256"
            },
            {
              "internalType": "enum PrisonersDilemma.TournamentStatus",
              "name": "status",
              "type": "uint8"
            },
            {
              "internalType": "uint256",
              "name": "startTime",
              "type": "uint256"
            },
            {
              "internalType": "uint256",
              "name": "playerCount",
              "type": "uint256"
            },
            {
              "internalType": "uint256",
              "name": "totalGames",
              "type": "uint256"
            },
            {
              "internalType": "uint256",
              "name": "rounds",
              "type": "uint256"
            },
            {
              "internalType": "uint256",
              "name": "prizePool",
              "type": "uint256"
            }
          ],
          "internalType": "struct PrisonersDilemma.TournamentInfo",
          "name": "",
          "type": "tuple"
        }
      ],
      "stateMutability": "view",
      "type": "function"
    },
    {
      "inputs": [
        {
          "internalType": "uint256",
          "name": "tournamentId",
          "type": "uint256"
        }
      ],
      "name": "getTournamentPlayers",
      "outputs": [
        {
          "internalType": "address[]",
          "name": "",
          "type": "address[]"
        }
      ],
      "stateMutability": "view",
      "type": "function"
    },
    {
      "inputs": [
        {
          "internalType": "uint256",
          "name": "tournamentId",
          "type": "uint256"
        }
      ],
      "name": "getTournamentWinners",
      "outputs": [
        {
          "internalType": "address[]",
          "name": "",
          "type": "address[]"
        },
        {
          "internalType": "uint256[]",
          "name": "",
          "type": "uint256[]"
        }
      ],
      "stateMutability": "view",
      "type": "function"
    },
    {
      "inputs": [
        {
          "internalType": "uint256",
          "name": "tournamentId",
          "type": "uint256"
        }
      ],
      "name": "getVoteInfo",
      "outputs": [
        {
          "internalType": "uint256",
          "name": "voteCount",
          "type": "uint256"
        },
        {
          "internalType": "uint256",
          "name": "requiredVotes",
          "type": "uint256"
        }
      ],
      "stateMutability": "view",
      "type": "function"
    },
    {
      "inputs": [
        {
          "internalType": "uint256",
          "name": "tournamentId",
          "type": "uint256"
        },
        {
          "internalType": "address",
          "name": "player",
          "type": "address"
        }
      ],
      "name": "hasVoted",
      "outputs": [
        {
          "internalType": "bool",
          "name": "",
          "type": "bool"
        }
      ],
      "stateMutability": "view",
      "type": "function"
    },
    {
      "inputs": [],
      "name": "owner",
      "outputs": [
        {
          "internalType": "address",
          "name": "",
          "type": "address"
        }
      ],
      "stateMutability": "view",
      "type": "function"
    },
    {
      "inputs": [
        {
          "internalType": "uint256",
          "name": "tournamentId",
          "type": "uint256"
        },
        {
          "internalType": "address[]",
          "name": "players",
          "type": "address[]"
        },
        {
          "internalType": "uint256[]",
          "name": "scores",
          "type": "uint256[]"
        },
        {
          "internalType": "address[]",
          "name": "winners",
          "type": "address[]"
        },
        {
          "internalType": "uint256[]",
          "name": "prizes",
          "type": "uint256[]"
        }
      ],
      "name": "publishResults",
      "outputs": [],
      "stateMutability": "nonpayable",
      "type": "function"
    },
    {
      "inputs": [
        {
          "internalType": "address",
          "name": "oracle",
          "type": "address"
        }
      ],
      "name": "setComputationOracle",
      "outputs": [],
      "stateMutability": "nonpayable",
      "type": "function"
    },
    {
      "inputs": [
        {
          "internalType": "uint256",
          "name": "rounds",
          "type": "uint256"
        }
      ],
      "name": "setTournamentRounds",
      "outputs": [],
      "stateMutability": "nonpayable",
      "type": "function"
    },
    {
      "inputs": [
        {
          "internalType": "externalEuint128",
          "name": "encryptedActionsHandle",
          "type": "bytes32"
        },
        {
          "internalType": "bytes",
          "name": "inputProof",
          "type": "bytes"
        },
        {
          "internalType": "enum PrisonersDilemma.ConditionSubject[]",
          "name": "subjects",
          "type": "uint8[]"
        },
        {
          "internalType": "enum PrisonersDilemma.ConditionOperator[]",
          "name": "operators",
          "type": "uint8[]"
        },
        {
          "internalType": "uint256[]",
          "name": "values",
          "type": "uint256[]"
        }
      ],
      "name": "submitStrategy",
      "outputs": [],
      "stateMutability": "payable",
      "type": "function"
    },
    {
      "inputs": [
        {
          "internalType": "uint256",
          "name": "",
          "type": "uint256"
        },
        {
          "internalType": "uint256",
          "name": "",
          "type": "uint256"
        }
      ],
      "name": "tournamentPlayers",
      "outputs": [
        {
          "internalType": "address",
          "name": "",
          "type": "address"
        }
      ],
      "stateMutability": "view",
      "type": "function"
    },
    {
      "inputs": [
        {
          "internalType": "uint256",
          "name": "",
          "type": "uint256"
        }
      ],
      "name": "tournaments",
      "outputs": [
        {
          "internalType": "uint256",
          "name": "tournamentId",
          "type": "uint256"
        },
        {
          "internalType": "enum PrisonersDilemma.TournamentStatus",
          "name": "status",
          "type": "uint8"
        },
        {
          "internalType": "uint256",
          "name": "startTime",
          "type": "uint256"
        },
        {
          "internalType": "uint256",
          "name": "playerCount",
          "type": "uint256"
        },
        {
          "internalType": "uint256",
          "name": "totalGames",
          "type": "uint256"
        },
        {
          "internalType": "uint256",
          "name": "rounds",
          "type": "uint256"
        },
        {
          "internalType": "uint256",
          "name": "prizePool",
          "type": "uint256"
        }
      ],
      "stateMutability": "view",
      "type": "function"
    },
    {
      "inputs": [],
      "name": "voteStartTournament",
      "outputs": [],
      "stateMutability": "nonpayable",
      "type": "function"
    },
    {
      "stateMutability": "payable",
      "type": "receive"
    }
  ],
  "bytecode": "0x6080604052348015600e575f5ffd5b505f80546001600160a01b03199081163390811783556001805490921617905560078190556040805160e081018252828152602081018390529081018290526060810182905260808101829052603260a0820181905260c090910182905260088290556009805460ff19169055600a829055600b829055600c829055600d55600e556126ae8061009d5f395ff3fe6080604052600436106101b2575f3560e01c80639135e50b116100e7578063d0ec6eb111610087578063e86ba67a11610062578063e86ba67a14610517578063f6d361cc1461052b578063f8806a1314610545578063fc8e750414610574575f5ffd5b8063d0ec6eb1146104d0578063d829055e146104ef578063dae73b9814610503575f5ffd5b8063b0ee9690116100c2578063b0ee96901461047f578063b88500231461049e578063c617b26a146104b1578063c7761fab14610225575f5ffd5b80639135e50b146104335780639ec296f2146103b9578063a44ef7f314610452575f5ffd5b806341d3558211610152578063797617a21161012d578063797617a21461039a578063843cbbc6146103b95780638d824273146103cd5780638da5cb5b14610415575f5ffd5b806341d35582146102fc57806343859632146103105780637503e1b71461033f575f5ffd5b806326f7519a1161018d57806326f7519a146102475780632f50d6dc146102735780633155d2ee146102b7578063404e4520146102e6575f5ffd5b8063150eb5b8146101bd5780631a5bd7fc146101f95780631a774e5414610225575f5ffd5b366101b957005b5f5ffd5b3480156101c8575f5ffd5b506001546101dc906001600160a01b031681565b6040516001600160a01b0390911681526020015b60405180910390f35b348015610204575f5ffd5b50610218610213366004612064565b610589565b6040516101f091906120a3565b348015610230575f5ffd5b50610239603281565b6040519081526020016101f0565b348015610252575f5ffd5b50610266610261366004612064565b610685565b6040516101f0919061213a565b34801561027e575f5ffd5b50600854600954600a54600b54600c54600d54600e546102a4969560ff16949392919087565b6040516101f09796959493929190612153565b3480156102c2575f5ffd5b506102d66102d13660046121ab565b6106ee565b6040516101f09493929190612276565b3480156102f1575f5ffd5b506102fa6109e2565b005b348015610307575f5ffd5b5061023960c881565b34801561031b575f5ffd5b5061032f61032a3660046122bf565b610a32565b60405190151581526020016101f0565b34801561034a575f5ffd5b506102a4610359366004612064565b600360208190525f91825260409091208054600182015460028301549383015460048401546005850154600690950154939560ff9093169492939192909187565b3480156103a5575f5ffd5b506102fa6103b4366004612064565b610a61565b3480156103c4575f5ffd5b50610239600a81565b3480156103d8575f5ffd5b506104006103e7366004612064565b5f90815260056020526040902080546002909101549091565b604080519283526020830191909152016101f0565b348015610420575f5ffd5b505f546101dc906001600160a01b031681565b34801561043e575f5ffd5b506102fa61044d3660046121ab565b610b9f565b34801561045d575f5ffd5b5061047161046c366004612064565b610c91565b6040516101f09291906122e9565b34801561048a575f5ffd5b506101dc610499366004612316565b610dbf565b6102fa6104ac3660046123bc565b610df3565b3480156104bc575f5ffd5b506102396104cb3660046122bf565b6112d5565b3480156104db575f5ffd5b506102fa6104ea366004612495565b61135d565b3480156104fa575f5ffd5b50610218611671565b34801561050e575f5ffd5b506102fa611725565b348015610522575f5ffd5b50610239601e81565b348015610536575f5ffd5b50610239662386f26fc1000081565b348015610550575f5ffd5b5061056461055f3660046121ab565b6118f0565b6040516101f094939291906124d6565b34801561057f575f5ffd5b5061023960075481565b6105c46040805160e081019091525f808252602082019081526020015f81526020015f81526020015f81526020015f81526020015f81525090565b6007548203610647576040805160e08101909152600880548252600954602083019060ff1660038111156105fa576105fa61207b565b600381111561060b5761060b61207b565b81526002820154602082015260038201546040820152600482015460608201526005820154608082015260069091015460a09091015292915050565b5f82815260036020818152604092839020835160e0810190945280548452600181015490929184019160ff909116908111156105fa576105fa61207b565b5f818152600460209081526040918290208054835181840281018401909452808452606093928301828280156106e257602002820191905f5260205f20905b81546001600160a01b031681526001909101906020018083116106c4575b50505050509050919050565b6001545f90606090819081906001600160a01b031633148061071957505f546001600160a01b031633145b6107585760405162461bcd60e51b815260206004820152600b60248201526a4f6e6c79206f7261636c6560a81b60448201526064015b60405180910390fd5b6007545f9081526002602081815260408084206001600160a01b038a1685529091529091209081015460ff166107d05760405162461bcd60e51b815260206004820152601560248201527f4e6f207374726174656779207375626d69747465640000000000000000000000604482015260640161074f565b80548067ffffffffffffffff8111156107eb576107eb612522565b604051908082528060200260200182016040528015610814578160200160208202803683370190505b5094508067ffffffffffffffff81111561083057610830612522565b604051908082528060200260200182016040528015610859578160200160208202803683370190505b5093508067ffffffffffffffff81111561087557610875612522565b60405190808252806020026020018201604052801561089e578160200160208202803683370190505b5092505f5b818110156109d257825f0181815481106108bf576108bf612536565b5f918252602090912060029091020154865160ff909116908790839081106108e9576108e9612536565b602002602001019060058111156109025761090261207b565b908160058111156109155761091561207b565b905250825483908290811061092c5761092c612536565b905f5260205f2090600202015f0160019054906101000a900460ff1685828151811061095a5761095a612536565b602002602001019060048111156109735761097361207b565b908160048111156109865761098661207b565b905250825483908290811061099d5761099d612536565b905f5260205f209060020201600101548482815181106109bf576109bf612536565b60209081029190910101526001016108a3565b5050600101549592945090925090565b5f546001600160a01b03163314610a285760405162461bcd60e51b815260206004820152600a60248201526927b7363c9037bbb732b960b11b604482015260640161074f565b610a30611afa565b565b5f8281526005602090815260408083206001600160a01b038516845260010190915290205460ff165b92915050565b5f546001600160a01b03163314610aa75760405162461bcd60e51b815260206004820152600a60248201526927b7363c9037bbb732b960b11b604482015260640161074f565b5f60095460ff166003811115610abf57610abf61207b565b14610b025760405162461bcd60e51b81526020600482015260136024820152722737ba1034b7103932b3b4b9ba3930ba34b7b760691b604482015260640161074f565b600a8110158015610b14575060c88111155b610b605760405162461bcd60e51b815260206004820152600e60248201527f496e76616c696420726f756e6473000000000000000000000000000000000000604482015260640161074f565b600d8190556007546040518281527f9ca488ee3ab8666b1354449cfe3927640726b3ff1b87c8ffce772a7594034650906020015b60405180910390a250565b5f546001600160a01b03163314610be55760405162461bcd60e51b815260206004820152600a60248201526927b7363c9037bbb732b960b11b604482015260640161074f565b6001600160a01b038116610c3b5760405162461bcd60e51b815260206004820152600e60248201527f496e76616c6964206f7261636c65000000000000000000000000000000000000604482015260640161074f565b6001805473ffffffffffffffffffffffffffffffffffffffff19166001600160a01b0383169081179091556040517f2fd2b8fed5a6bb25ab7a2bdf98499d74ec6c0dd362012ceed5c90626dc3a8ac5905f90a250565b5f81815260066020526040902060030154606090819060ff16610cf65760405162461bcd60e51b815260206004820152601960248201527f526573756c7473206e6f74207075626c69736865642079657400000000000000604482015260640161074f565b5f838152600660209081526040918290206001810180548451818502810185019095528085529193909260028501928491830182828015610d5e57602002820191905f5260205f20905b81546001600160a01b03168152600190910190602001808311610d40575b5050505050915080805480602002602001604051908101604052809291908181526020018280548015610dae57602002820191905f5260205f20905b815481526020019060010190808311610d9a575b505050505090509250925050915091565b6004602052815f5260405f208181548110610dd8575f80fd5b5f918252602090912001546001600160a01b03169150829050565b5f60095460ff166003811115610e0b57610e0b61207b565b14610e4e5760405162461bcd60e51b81526020600482015260136024820152722737ba1034b7103932b3b4b9ba3930ba34b7b760691b604482015260640161074f565b662386f26fc10000341015610ea55760405162461bcd60e51b815260206004820152601660248201527f496e73756666696369656e7420656e7472792066656500000000000000000000604482015260640161074f565b8483148015610eb357508281145b610eff5760405162461bcd60e51b815260206004820152601160248201527f4d69736d61746368656420617272617973000000000000000000000000000000604482015260640161074f565b600a851115610f505760405162461bcd60e51b815260206004820152600e60248201527f546f6f206d616e792072756c6573000000000000000000000000000000000000604482015260640161074f565b6007545f908152600260208181526040808420338552909152909120015460ff1615610fbe5760405162461bcd60e51b815260206004820152601a60248201527f537472617465677920616c7265616479207375626d6974746564000000000000604482015260640161074f565b8661100b5760405162461bcd60e51b815260206004820152601360248201527f496e76616c696420696e7075742070726f6f6600000000000000000000000000604482015260640161074f565b6007545f908152600260209081526040808320338452909152812061102f91611f6b565b6007545f9081526002602081815260408084203385529091528220908101805460ff1916600190811790915581018b9055905b868110156111e4576110c088888381811061107f5761107f612536565b9050602002016020810190611094919061254a565b8787848181106110a6576110a6612536565b90506020020160208101906110bb9190612568565b611c24565b815f0160405180606001604052808a8a858181106110e0576110e0612536565b90506020020160208101906110f5919061254a565b60058111156111065761110661207b565b815260200188888581811061111d5761111d612536565b90506020020160208101906111329190612568565b60048111156111435761114361207b565b815260200186868581811061115a5761115a612536565b602090810292909201359092528354600181810186555f958652919094208351600290950201805493949093909250839160ff19909116908360058111156111a4576111a461207b565b021790555060208201518154829061ff0019166101008360048111156111cc576111cc61207b565b02179055506040919091015160019182015501611062565b506007545f9081526004602090815260408220805460018101825590835290822001805473ffffffffffffffffffffffffffffffffffffffff191633179055600b8054916112318361259a565b91905055503460086006015f82825461124a91906125b2565b90915550506007545f908152600560205260409020600b54606490611271906032906125c5565b61127b91906125dc565b60028083018290551115611290576002818101555b60075460405190815233907f7f996dafed49a846774861911b5a7125b3f1ade25d0e4cfb9143679dea83ff249060200160405180910390a25050505050505050505050565b5f8281526006602052604081206003015460ff166113355760405162461bcd60e51b815260206004820152601960248201527f526573756c7473206e6f74207075626c69736865642079657400000000000000604482015260640161074f565b505f9182526006602090815260408084206001600160a01b0393909316845291905290205490565b6001546001600160a01b031633148061137f57505f546001600160a01b031633145b6113b95760405162461bcd60e51b815260206004820152600b60248201526a4f6e6c79206f7261636c6560a81b604482015260640161074f565b600754891461140a5760405162461bcd60e51b815260206004820152601260248201527f496e76616c696420746f75726e616d656e740000000000000000000000000000604482015260640161074f565b600160095460ff1660038111156114235761142361207b565b146114705760405162461bcd60e51b815260206004820152600b60248201527f4e6f742070656e64696e67000000000000000000000000000000000000000000604482015260640161074f565b8685146114bf5760405162461bcd60e51b815260206004820152601160248201527f4d69736d61746368656420617272617973000000000000000000000000000000604482015260640161074f565b82811461150e5760405162461bcd60e51b815260206004820152601160248201527f4d69736d617463686564207072697a6573000000000000000000000000000000604482015260640161074f565b5f898152600660205260409020600381015460ff16156115705760405162461bcd60e51b815260206004820152601160248201527f416c7265616479207075626c6973686564000000000000000000000000000000604482015260640161074f565b5f5b888110156115df5787878281811061158c5761158c612536565b90506020020135825f015f8c8c858181106115a9576115a9612536565b90506020020160208101906115be91906121ab565b6001600160a01b0316815260208101919091526040015f2055600101611572565b506115ee600182018686611f89565b506115fd600282018484611ff7565b5060038101805460ff199081166001179091556009805490911660021790556040518a907f19e48af67fca3cde658dbcc800b2c2ac6bea36379321c5557c4b8ba0c1662150906116549088908890889088906125fb565b60405180910390a26116658a611d89565b50505050505050505050565b6116ac6040805160e081019091525f808252602082019081526020015f81526020015f81526020015f81526020015f81526020015f81525090565b6040805160e08101909152600880548252600954602083019060ff1660038111156116d9576116d961207b565b60038111156116ea576116ea61207b565b815260200160028201548152602001600382015481526020016004820154815260200160058201548152602001600682015481525050905090565b5f60095460ff16600381111561173d5761173d61207b565b146117805760405162461bcd60e51b81526020600482015260136024820152722737ba1034b7103932b3b4b9ba3930ba34b7b760691b604482015260640161074f565b6007545f908152600260208181526040808420338552909152909120015460ff166117ed5760405162461bcd60e51b815260206004820152601c60248201527f4d757374207375626d697420737472617465677920746f20766f746500000000604482015260640161074f565b6007545f908152600560209081526040808320338452600181019092529091205460ff161561185e5760405162461bcd60e51b815260206004820152600d60248201527f416c726561647920766f74656400000000000000000000000000000000000000604482015260640161074f565b335f908152600182810160205260408220805460ff1916909117905581549082906118888361259a565b9091555050600754815460028301546040513393927f0271f53eebbe20450d9578f28ec279231556c34545b30e2278d754ffd39cd63c926118d192918252602082015260400190565b60405180910390a360028101548154106118ed576118ed611afa565b50565b6007545f9081526002602090815260408083206001600160a01b038516845290915281208054606092839283928067ffffffffffffffff81111561193657611936612522565b60405190808252806020026020018201604052801561195f578160200160208202803683370190505b5095508067ffffffffffffffff81111561197b5761197b612522565b6040519080825280602002602001820160405280156119a4578160200160208202803683370190505b5094508067ffffffffffffffff8111156119c0576119c0612522565b6040519080825280602002602001820160405280156119e9578160200160208202803683370190505b5093505f5b81811015611ae5575f835f018281548110611a0b57611a0b612536565b5f91825260209091206002909102018054895191925060ff1690899084908110611a3757611a37612536565b60200260200101906005811115611a5057611a5061207b565b90816005811115611a6357611a6361207b565b81525050805f0160019054906101000a900460ff16878381518110611a8a57611a8a612536565b60200260200101906004811115611aa357611aa361207b565b90816004811115611ab657611ab661207b565b815250508060010154868381518110611ad157611ad1612536565b6020908102919091010152506001016119ee565b5050600201549395929450909260ff16919050565b5f60095460ff166003811115611b1257611b1261207b565b14611b5f5760405162461bcd60e51b815260206004820152600e60248201527f496e76616c696420737461747573000000000000000000000000000000000000604482015260640161074f565b600b5460021115611bb25760405162461bcd60e51b815260206004820152601760248201527f4e656564206174206c65617374203220706c6179657273000000000000000000604482015260640161074f565b6009805460ff1916600190811790915542600a55600b5490600290611bd7908361268e565b611be190836125c5565b611beb91906125dc565b600c55600754600b546040519081527fbc7efbd054762c7024dd5838b4eef6be3c9982e8a7397e2b3949e1b52263a61c90602001610b94565b6001826005811115611c3857611c3861207b565b1480611c5557506002826005811115611c5357611c5361207b565b145b15611ce4575f816004811115611c6d57611c6d61207b565b1480611c8a57506001816004811115611c8857611c8861207b565b145b611ce05760405162461bcd60e51b815260206004820152602160248201527f496e76616c6964206f70657261746f7220666f72206d6f7665207375626a65636044820152601d60fa1b606482015260840161074f565b5050565b6004816004811115611cf857611cf861207b565b1480611d1557506002816004811115611d1357611d1361207b565b145b80611d3157506003816004811115611d2f57611d2f61207b565b145b611ce05760405162461bcd60e51b8152602060048201526024808201527f496e76616c6964206f70657261746f7220666f72206e756d65726963207375626044820152631a9958dd60e21b606482015260840161074f565b5f818152600660205260408120905b6001820154811015611e2557816001018181548110611db957611db9612536565b5f918252602090912001546002830180546001600160a01b03909216916108fc919084908110611deb57611deb612536565b905f5260205f20015490811502906040515f60405180830381858888f19350505050158015611e1c573d5f5f3e3d5ffd5b50600101611d98565b5060098054600360ff19918216811783555f858152602082905260409020600880548255935460018281018054939560ff909316949093909216918490811115611e7157611e7161207b565b02179055506002828101549082015560038083015490820155600480830154908201556005808301549082015560069182015491015560405182907fe3416bedc8b1254602d8c58495d878a5c5b3ca4aaf8b5ac27f682b30036ed3ef905f90a260078054600101908190556040805160e0810182528281525f602082018190528183018190526060820181905260808201819052603260a0830181905260c090920181905260088490556009805460ff19169055600a819055600b819055600c819055600d91909155600e8190559051611ce092917f113d32d0b7aec15a8c7f50af4cb42f4695e5b95524ed69519ac88d6c1f1f40f691a2565b5080545f8255600202905f5260205f20908101906118ed9190612030565b828054828255905f5260205f20908101928215611fe7579160200282015b82811115611fe757815473ffffffffffffffffffffffffffffffffffffffff19166001600160a01b03843516178255602090920191600190910190611fa7565b50611ff3929150612050565b5090565b828054828255905f5260205f20908101928215611fe7579160200282015b82811115611fe7578235825591602001919060010190612015565b5b80821115611ff357805461ffff191681555f6001820155600201612031565b5b80821115611ff3575f8155600101612051565b5f60208284031215612074575f5ffd5b5035919050565b634e487b7160e01b5f52602160045260245ffd5b6004811061209f5761209f61207b565b9052565b8151815260208083015160e08301916120be9084018261208f565b5060408301516040830152606083015160608301526080830151608083015260a083015160a083015260c083015160c083015292915050565b5f8151808452602084019350602083015f5b828110156121305781516001600160a01b0316865260209586019590910190600101612109565b5093949350505050565b602081525f61214c60208301846120f7565b9392505050565b87815260e08101612167602083018961208f565b60408201969096526060810194909452608084019290925260a083015260c09091015292915050565b80356001600160a01b03811681146121a6575f5ffd5b919050565b5f602082840312156121bb575f5ffd5b61214c82612190565b5f8151808452602084019350602083015f5b82811015612130578151600681106121f0576121f061207b565b865260209586019591909101906001016121d6565b5f8151808452602084019350602083015f5b82811015612130578151600581106122315761223161207b565b86526020958601959190910190600101612217565b5f8151808452602084019350602083015f5b82811015612130578151865260209586019590910190600101612258565b848152608060208201525f61228e60808301866121c4565b82810360408401526122a08186612205565b905082810360608401526122b48185612246565b979650505050505050565b5f5f604083850312156122d0575f5ffd5b823591506122e060208401612190565b90509250929050565b604081525f6122fb60408301856120f7565b828103602084015261230d8185612246565b95945050505050565b5f5f60408385031215612327575f5ffd5b50508035926020909101359150565b5f5f83601f840112612346575f5ffd5b50813567ffffffffffffffff81111561235d575f5ffd5b602083019150836020828501011115612374575f5ffd5b9250929050565b5f5f83601f84011261238b575f5ffd5b50813567ffffffffffffffff8111156123a2575f5ffd5b6020830191508360208260051b8501011115612374575f5ffd5b5f5f5f5f5f5f5f5f5f60a08a8c0312156123d4575f5ffd5b8935985060208a013567ffffffffffffffff8111156123f1575f5ffd5b6123fd8c828d01612336565b90995097505060408a013567ffffffffffffffff81111561241c575f5ffd5b6124288c828d0161237b565b90975095505060608a013567ffffffffffffffff811115612447575f5ffd5b6124538c828d0161237b565b90955093505060808a013567ffffffffffffffff811115612472575f5ffd5b61247e8c828d0161237b565b915080935050809150509295985092959850929598565b5f5f5f5f5f5f5f5f5f60a08a8c0312156124ad575f5ffd5b8935985060208a013567ffffffffffffffff8111156124ca575f5ffd5b6123fd8c828d0161237b565b608081525f6124e860808301876121c4565b82810360208401526124fa8187612205565b9050828103604084015261250e8186612246565b915050821515606083015295945050505050565b634e487b7160e01b5f52604160045260245ffd5b634e487b7160e01b5f52603260045260245ffd5b5f6020828403121561255a575f5ffd5b81356006811061214c575f5ffd5b5f60208284031215612578575f5ffd5b81356005811061214c575f5ffd5b634e487b7160e01b5f52601160045260245ffd5b5f600182016125ab576125ab612586565b5060010190565b80820180821115610a5b57610a5b612586565b8082028115828204841417610a5b57610a5b612586565b5f826125f657634e487b7160e01b5f52601260045260245ffd5b500490565b604080825281018490525f8560608301825b8781101561263b576001600160a01b0361262684612190565b1682526020928301929091019060010161260d565b5083810360208501528481527f07ffffffffffffffffffffffffffffffffffffffffffffffffffffffffffffff851115612673575f5ffd5b8460051b915081866020830137016020019695505050505050565b81810381811115610a5b57610a5b61258656fea164736f6c634300081b000a",
  "linkReferences": {},
  "deployedLinkReferences": {}
}