{
  "_format": "hh-sol-artifact-1",
  "contractName": "PrisonersDilemma",
  "sourceName": "contracts/PrisonersDilemma.sol",
  "abi": [
    {
      "inputs": [],
      "stateMutability": "nonpayable",
      "type": "constructor"
    },
    {
      "inputs": [],
      "name": "ZamaProtocolUnsupported",
      "type": "error"
    },
    {
      "anonymous": false,
      "inputs": [
        {
          "indexed": true,
          "internalType": "address",
          "name": "oracle",
          "type": "address"
        }
      ],
      "name": "ComputationOracleSet",
      "type": "event"
    },
    {
      "anonymous": false,
      "inputs": [
        {
          "indexed": true,
          "internalType": "uint256",
          "name": "tournamentId",
          "type": "uint256"
        },
        {
          "indexed": false,
          "internalType": "address[]",
          "name": "winners",
          "type": "address[]"
        },
        {
          "indexed": false,
          "internalType": "uint256[]",
          "name": "prizes",
          "type": "uint256[]"
        }
      ],
      "name": "ResultsPublished",
      "type": "event"
    },
    {
      "anonymous": false,
      "inputs": [
        {
          "indexed": true,
          "internalType": "address",
          "name": "player",
          "type": "address"
        },
        {
          "indexed": false,
          "internalType": "uint256",
          "name": "tournamentId",
          "type": "uint256"
        }
      ],
      "name": "StrategySubmitted",
      "type": "event"
    },
    {
      "anonymous": false,
      "inputs": [
        {
          "indexed": true,
          "internalType": "uint256",
          "name": "tournamentId",
          "type": "uint256"
        }
      ],
      "name": "TournamentCreated",
      "type": "event"
    },
    {
      "anonymous": false,
      "inputs": [
        {
          "indexed": true,
          "internalType": "uint256",
          "name": "tournamentId",
          "type": "uint256"
        }
      ],
      "name": "TournamentFinished",
      "type": "event"
    },
    {
      "anonymous": false,
      "inputs": [
        {
          "indexed": true,
          "internalType": "uint256",
          "name": "tournamentId",
          "type": "uint256"
        },
        {
          "indexed": false,
          "internalType": "uint256",
          "name": "rounds",
          "type": "uint256"
        }
      ],
      "name": "TournamentRoundsSet",
      "type": "event"
    },
    {
      "anonymous": false,
      "inputs": [
        {
          "indexed": true,
          "internalType": "uint256",
          "name": "tournamentId",
          "type": "uint256"
        },
        {
          "indexed": false,
          "internalType": "uint256",
          "name": "playerCount",
          "type": "uint256"
        }
      ],
      "name": "TournamentStarted",
      "type": "event"
    },
    {
      "anonymous": false,
      "inputs": [
        {
          "indexed": true,
          "internalType": "uint256",
          "name": "tournamentId",
          "type": "uint256"
        },
        {
          "indexed": true,
          "internalType": "address",
          "name": "voter",
          "type": "address"
        },
        {
          "indexed": false,
          "internalType": "uint256",
          "name": "currentVotes",
          "type": "uint256"
        },
        {
          "indexed": false,
          "internalType": "uint256",
          "name": "requiredVotes",
          "type": "uint256"
        }
      ],
      "name": "VoteCast",
      "type": "event"
    },
    {
      "inputs": [],
      "name": "DEFAULT_ROUNDS",
      "outputs": [
        {
          "internalType": "uint256",
          "name": "",
          "type": "uint256"
        }
      ],
      "stateMutability": "view",
      "type": "function"
    },
    {
      "inputs": [],
      "name": "ENTRY_FEE",
      "outputs": [
        {
          "internalType": "uint256",
          "name": "",
          "type": "uint256"
        }
      ],
      "stateMutability": "view",
      "type": "function"
    },
    {
      "inputs": [],
      "name": "MAX_ROUNDS",
      "outputs": [
        {
          "internalType": "uint256",
          "name": "",
          "type": "uint256"
        }
      ],
      "stateMutability": "view",
      "type": "function"
    },
    {
      "inputs": [],
      "name": "MAX_RULES",
      "outputs": [
        {
          "internalType": "uint256",
          "name": "",
          "type": "uint256"
        }
      ],
      "stateMutability": "view",
      "type": "function"
    },
    {
      "inputs": [],
      "name": "MIN_ROUNDS",
      "outputs": [
        {
          "internalType": "uint256",
          "name": "",
          "type": "uint256"
        }
      ],
      "stateMutability": "view",
      "type": "function"
    },
    {
      "inputs": [],
      "name": "VOTE_QUORUM",
      "outputs": [
        {
          "internalType": "uint256",
          "name": "",
          "type": "uint256"
        }
      ],
      "stateMutability": "view",
      "type": "function"
    },
    {
      "inputs": [],
      "name": "WINNER_PERCENTAGE",
      "outputs": [
        {
          "internalType": "uint256",
          "name": "",
          "type": "uint256"
        }
      ],
      "stateMutability": "view",
      "type": "function"
    },
    {
      "inputs": [],
      "name": "computationOracle",
      "outputs": [
        {
          "internalType": "address",
          "name": "",
          "type": "address"
        }
      ],
      "stateMutability": "view",
      "type": "function"
    },
    {
      "inputs": [],
      "name": "confidentialProtocolId",
      "outputs": [
        {
          "internalType": "uint256",
          "name": "",
          "type": "uint256"
        }
      ],
      "stateMutability": "view",
      "type": "function"
    },
    {
      "inputs": [],
      "name": "currentTournament",
      "outputs": [
        {
          "internalType": "uint256",
          "name": "tournamentId",
          "type": "uint256"
        },
        {
          "internalType": "enum PrisonersDilemma.TournamentStatus",
          "name": "status",
          "type": "uint8"
        },
        {
          "internalType": "uint256",
          "name": "startTime",
          "type": "uint256"
        },
        {
          "internalType": "uint256",
          "name": "playerCount",
          "type": "uint256"
        },
        {
          "internalType": "uint256",
          "name": "totalGames",
          "type": "uint256"
        },
        {
          "internalType": "uint256",
          "name": "rounds",
          "type": "uint256"
        },
        {
          "internalType": "uint256",
          "name": "prizePool",
          "type": "uint256"
        }
      ],
      "stateMutability": "view",
      "type": "function"
    },
    {
      "inputs": [],
      "name": "currentTournamentId",
      "outputs": [
        {
          "internalType": "uint256",
          "name": "",
          "type": "uint256"
        }
      ],
      "stateMutability": "view",
      "type": "function"
    },
    {
      "inputs": [],
      "name": "forceStartTournament",
      "outputs": [],
      "stateMutability": "nonpayable",
      "type": "function"
    },
    {
      "inputs": [
        {
          "internalType": "address",
          "name": "player",
          "type": "address"
        }
      ],
      "name": "getEncryptedActionsHandle",
      "outputs": [
        {
          "internalType": "bytes32",
          "name": "",
          "type": "bytes32"
        }
      ],
      "stateMutability": "view",
      "type": "function"
    },
    {
      "inputs": [
        {
          "internalType": "address",
          "name": "player",
          "type": "address"
        }
      ],
      "name": "getEncryptedStrategyForComputation",
      "outputs": [
        {
          "internalType": "bytes32",
          "name": "encryptedActionsHandle",
          "type": "bytes32"
        },
        {
          "internalType": "enum PrisonersDilemma.ConditionSubject[]",
          "name": "subjects",
          "type": "uint8[]"
        },
        {
          "internalType": "enum PrisonersDilemma.ConditionOperator[]",
          "name": "operators",
          "type": "uint8[]"
        },
        {
          "internalType": "uint256[]",
          "name": "values",
          "type": "uint256[]"
        }
      ],
      "stateMutability": "view",
      "type": "function"
    },
    {
      "inputs": [
        {
          "internalType": "uint256",
          "name": "tournamentId",
          "type": "uint256"
        },
        {
          "internalType": "address",
          "name": "player",
          "type": "address"
        }
      ],
      "name": "getPlayerScore",
      "outputs": [
        {
          "internalType": "uint256",
          "name": "",
          "type": "uint256"
        }
      ],
      "stateMutability": "view",
      "type": "function"
    },
    {
      "inputs": [
        {
          "internalType": "address",
          "name": "player",
          "type": "address"
        }
      ],
      "name": "getStrategy",
      "outputs": [
        {
          "internalType": "enum PrisonersDilemma.ConditionSubject[]",
          "name": "subjects",
          "type": "uint8[]"
        },
        {
          "internalType": "enum PrisonersDilemma.ConditionOperator[]",
          "name": "operators",
          "type": "uint8[]"
        },
        {
          "internalType": "uint256[]",
          "name": "values",
          "type": "uint256[]"
        },
        {
          "internalType": "bool",
          "name": "isSubmitted",
          "type": "bool"
        }
      ],
      "stateMutability": "view",
      "type": "function"
    },
    {
      "inputs": [
        {
          "internalType": "uint256",
          "name": "tournamentId",
          "type": "uint256"
        }
      ],
      "name": "getTournament",
      "outputs": [
        {
          "components": [
            {
              "internalType": "uint256",
              "name": "tournamentId",
              "type": "uint256"
            },
            {
              "internalType": "enum PrisonersDilemma.TournamentStatus",
              "name": "status",
              "type": "uint8"
            },
            {
              "internalType": "uint256",
              "name": "startTime",
              "type": "uint256"
            },
            {
              "internalType": "uint256",
              "name": "playerCount",
              "type": "uint256"
            },
            {
              "internalType": "uint256",
              "name": "totalGames",
              "type": "uint256"
            },
            {
              "internalType": "uint256",
              "name": "rounds",
              "type": "uint256"
            },
            {
              "internalType": "uint256",
              "name": "prizePool",
              "type": "uint256"
            }
          ],
          "internalType": "struct PrisonersDilemma.TournamentInfo",
          "name": "",
          "type": "tuple"
        }
      ],
      "stateMutability": "view",
      "type": "function"
    },
    {
      "inputs": [],
      "name": "getTournamentInfo",
      "outputs": [
        {
          "components": [
            {
              "internalType": "uint256",
              "name": "tournamentId",
              "type": "uint256"
            },
            {
              "internalType": "enum PrisonersDilemma.TournamentStatus",
              "name": "status",
              "type": "uint8"
            },
            {
              "internalType": "uint256",
              "name": "startTime",
              "type": "uint256"
            },
            {
              "internalType": "uint256",
              "name": "playerCount",
              "type": "uint256"
            },
            {
              "internalType": "uint256",
              "name": "totalGames",
              "type": "uint256"
            },
            {
              "internalType": "uint256",
              "name": "rounds",
              "type": "uint256"
            },
            {
              "internalType": "uint256",
              "name": "prizePool",
              "type": "uint256"
            }
          ],
          "internalType": "struct PrisonersDilemma.TournamentInfo",
          "name": "",
          "type": "tuple"
        }
      ],
      "stateMutability": "view",
      "type": "function"
    },
    {
      "inputs": [
        {
          "internalType": "uint256",
          "name": "tournamentId",
          "type": "uint256"
        }
      ],
      "name": "getTournamentPlayers",
      "outputs": [
        {
          "internalType": "address[]",
          "name": "",
          "type": "address[]"
        }
      ],
      "stateMutability": "view",
      "type": "function"
    },
    {
      "inputs": [
        {
          "internalType": "uint256",
          "name": "tournamentId",
          "type": "uint256"
        }
      ],
      "name": "getTournamentWinners",
      "outputs": [
        {
          "internalType": "address[]",
          "name": "",
          "type": "address[]"
        },
        {
          "internalType": "uint256[]",
          "name": "",
          "type": "uint256[]"
        }
      ],
      "stateMutability": "view",
      "type": "function"
    },
    {
      "inputs": [
        {
          "internalType": "uint256",
          "name": "tournamentId",
          "type": "uint256"
        }
      ],
      "name": "getVoteInfo",
      "outputs": [
        {
          "internalType": "uint256",
          "name": "voteCount",
          "type": "uint256"
        },
        {
          "internalType": "uint256",
          "name": "requiredVotes",
          "type": "uint256"
        }
      ],
      "stateMutability": "view",
      "type": "function"
    },
    {
      "inputs": [
        {
          "internalType": "uint256",
          "name": "tournamentId",
          "type": "uint256"
        },
        {
          "internalType": "address",
          "name": "player",
          "type": "address"
        }
      ],
      "name": "hasVoted",
      "outputs": [
        {
          "internalType": "bool",
          "name": "",
          "type": "bool"
        }
      ],
      "stateMutability": "view",
      "type": "function"
    },
    {
      "inputs": [],
      "name": "owner",
      "outputs": [
        {
          "internalType": "address",
          "name": "",
          "type": "address"
        }
      ],
      "stateMutability": "view",
      "type": "function"
    },
    {
      "inputs": [
        {
          "internalType": "uint256",
          "name": "tournamentId",
          "type": "uint256"
        },
        {
          "internalType": "address[]",
          "name": "players",
          "type": "address[]"
        },
        {
          "internalType": "uint256[]",
          "name": "scores",
          "type": "uint256[]"
        },
        {
          "internalType": "address[]",
          "name": "winners",
          "type": "address[]"
        },
        {
          "internalType": "uint256[]",
          "name": "prizes",
          "type": "uint256[]"
        }
      ],
      "name": "publishResults",
      "outputs": [],
      "stateMutability": "nonpayable",
      "type": "function"
    },
    {
      "inputs": [
        {
          "internalType": "address",
          "name": "oracle",
          "type": "address"
        }
      ],
      "name": "setComputationOracle",
      "outputs": [],
      "stateMutability": "nonpayable",
      "type": "function"
    },
    {
      "inputs": [
        {
          "internalType": "uint256",
          "name": "rounds",
          "type": "uint256"
        }
      ],
      "name": "setTournamentRounds",
      "outputs": [],
      "stateMutability": "nonpayable",
      "type": "function"
    },
    {
      "inputs": [
        {
          "internalType": "externalEuint128",
          "name": "encryptedActionsHandle",
          "type": "bytes32"
        },
        {
          "internalType": "bytes",
          "name": "inputProof",
          "type": "bytes"
        },
        {
          "internalType": "enum PrisonersDilemma.ConditionSubject[]",
          "name": "subjects",
          "type": "uint8[]"
        },
        {
          "internalType": "enum PrisonersDilemma.ConditionOperator[]",
          "name": "operators",
          "type": "uint8[]"
        },
        {
          "internalType": "uint256[]",
          "name": "values",
          "type": "uint256[]"
        }
      ],
      "name": "submitStrategy",
      "outputs": [],
      "stateMutability": "payable",
      "type": "function"
    },
    {
      "inputs": [
        {
          "internalType": "uint256",
          "name": "",
          "type": "uint256"
        },
        {
          "internalType": "uint256",
          "name": "",
          "type": "uint256"
        }
      ],
      "name": "tournamentPlayers",
      "outputs": [
        {
          "internalType": "address",
          "name": "",
          "type": "address"
        }
      ],
      "stateMutability": "view",
      "type": "function"
    },
    {
      "inputs": [
        {
          "internalType": "uint256",
          "name": "",
          "type": "uint256"
        }
      ],
      "name": "tournaments",
      "outputs": [
        {
          "internalType": "uint256",
          "name": "tournamentId",
          "type": "uint256"
        },
        {
          "internalType": "enum PrisonersDilemma.TournamentStatus",
          "name": "status",
          "type": "uint8"
        },
        {
          "internalType": "uint256",
          "name": "startTime",
          "type": "uint256"
        },
        {
          "internalType": "uint256",
          "name": "playerCount",
          "type": "uint256"
        },
        {
          "internalType": "uint256",
          "name": "totalGames",
          "type": "uint256"
        },
        {
          "internalType": "uint256",
          "name": "rounds",
          "type": "uint256"
        },
        {
          "internalType": "uint256",
          "name": "prizePool",
          "type": "uint256"
        }
      ],
      "stateMutability": "view",
      "type": "function"
    },
    {
      "inputs": [],
      "name": "voteStartTournament",
      "outputs": [],
      "stateMutability": "nonpayable",
      "type": "function"
    },
    {
      "stateMutability": "payable",
      "type": "receive"
    }
  ],
  "bytecode": "0x608060405234801561000f575f5ffd5b506100c461001b610149565b80517f9e7b61f58c47dc699ac88507c4f5bb9f121c03808c5676a8078fe583e464970080546001600160a01b03199081166001600160a01b039384161790915560208301517f9e7b61f58c47dc699ac88507c4f5bb9f121c03808c5676a8078fe583e46497018054831691841691909117905560408301517f9e7b61f58c47dc699ac88507c4f5bb9f121c03808c5676a8078fe583e46497028054909216921691909117905550565b5f8054336001600160a01b0319918216811783556001805490921617905560078190556040805160e081018252828152602081018390529081018290526060810182905260808101829052603260a0820181905260c090910182905260088290556009805460ff19169055600a829055600b829055600c829055600d55600e556102b8565b604080516060810182525f8082526020820181905291810191909152466001036101a2575060408051606080820183525f8083526020808401829052928401819052835191820184528082529181018290529182015290565b4662aa36a703610221575060408051606080820183525f8083526020808401829052928401528251908101835273f0ffdc93b7e186bc2f8cb3daa75d86d1930a433d81527392c920834ec8941d2c77d188936e1f7a6f49c1279181019190915273be0e383937d564d7ff0bc3b46c51f0bf8d5c311a9181019190915290565b46617a690361029f575060408051606080820183525f808352602080840182905292840152825190810183527350157cffd6bbfa2dece204a89ec419c23ef5755d815273e3a9105a3a932253a70f126eb1e3b589c643dd249181019190915273be0e383937d564d7ff0bc3b46c51f0bf8d5c311a9181019190915290565b6040516373cac13b60e01b815260040160405180910390fd5b612aaa806102c55f395ff3fe6080604052600436106101c8575f3560e01c80639135e50b116100f2578063cc45b65511610092578063e86ba67a11610062578063e86ba67a14610560578063f6d361cc14610574578063f8806a131461058e578063fc8e7504146105bd575f5ffd5b8063cc45b655146104fa578063d0ec6eb114610519578063d829055e14610538578063dae73b981461054c575f5ffd5b8063b0ee9690116100cd578063b0ee9690146104a9578063b8850023146104c8578063c617b26a146104db578063c7761fab1461023b575f5ffd5b80639135e50b1461045d5780639ec296f2146103cf578063a44ef7f31461047c575f5ffd5b806341d3558211610168578063843cbbc611610138578063843cbbc6146103cf5780638927b030146103e35780638d824273146103f75780638da5cb5b1461043f575f5ffd5b806341d355821461031257806343859632146103265780637503e1b714610355578063797617a2146103b0575f5ffd5b806326f7519a116101a357806326f7519a1461025d5780632f50d6dc146102895780633155d2ee146102cd578063404e4520146102fc575f5ffd5b8063150eb5b8146101d35780631a5bd7fc1461020f5780631a774e541461023b575f5ffd5b366101cf57005b5f5ffd5b3480156101de575f5ffd5b506001546101f2906001600160a01b031681565b6040516001600160a01b0390911681526020015b60405180910390f35b34801561021a575f5ffd5b5061022e6102293660046123ed565b6105d2565b604051610206919061242c565b348015610246575f5ffd5b5061024f603281565b604051908152602001610206565b348015610268575f5ffd5b5061027c6102773660046123ed565b6106ce565b60405161020691906124c3565b348015610294575f5ffd5b50600854600954600a54600b54600c54600d54600e546102ba969560ff16949392919087565b60405161020697969594939291906124d5565b3480156102d8575f5ffd5b506102ec6102e736600461252d565b610737565b60405161020694939291906125f8565b348015610307575f5ffd5b50610310610a2b565b005b34801561031d575f5ffd5b5061024f60c881565b348015610331575f5ffd5b50610345610340366004612641565b610a7b565b6040519015158152602001610206565b348015610360575f5ffd5b506102ba61036f3660046123ed565b600360208190525f91825260409091208054600182015460028301549383015460048401546005850154600690950154939560ff9093169492939192909187565b3480156103bb575f5ffd5b506103106103ca3660046123ed565b610aaa565b3480156103da575f5ffd5b5061024f600a81565b3480156103ee575f5ffd5b5061024f610be8565b348015610402575f5ffd5b5061042a6104113660046123ed565b5f90815260056020526040902080546002909101549091565b60408051928352602083019190915201610206565b34801561044a575f5ffd5b505f546101f2906001600160a01b031681565b348015610468575f5ffd5b5061031061047736600461252d565b610bf6565b348015610487575f5ffd5b5061049b6104963660046123ed565b610ce8565b60405161020692919061266b565b3480156104b4575f5ffd5b506101f26104c3366004612698565b610e16565b6103106104d636600461273e565b610e4a565b3480156104e6575f5ffd5b5061024f6104f5366004612641565b61134c565b348015610505575f5ffd5b5061024f61051436600461252d565b6113d4565b348015610524575f5ffd5b50610310610533366004612817565b6114db565b348015610543575f5ffd5b5061022e6117ef565b348015610557575f5ffd5b506103106118a3565b34801561056b575f5ffd5b5061024f601e81565b34801561057f575f5ffd5b5061024f662386f26fc1000081565b348015610599575f5ffd5b506105ad6105a836600461252d565b611a6e565b6040516102069493929190612858565b3480156105c8575f5ffd5b5061024f60075481565b61060d6040805160e081019091525f808252602082019081526020015f81526020015f81526020015f81526020015f81526020015f81525090565b6007548203610690576040805160e08101909152600880548252600954602083019060ff16600381111561064357610643612404565b600381111561065457610654612404565b81526002820154602082015260038201546040820152600482015460608201526005820154608082015260069091015460a09091015292915050565b5f82815260036020818152604092839020835160e0810190945280548452600181015490929184019160ff9091169081111561064357610643612404565b5f8181526004602090815260409182902080548351818402810184019094528084526060939283018282801561072b57602002820191905f5260205f20905b81546001600160a01b0316815260019091019060200180831161070d575b50505050509050919050565b6001545f90606090819081906001600160a01b031633148061076257505f546001600160a01b031633145b6107a15760405162461bcd60e51b815260206004820152600b60248201526a4f6e6c79206f7261636c6560a81b60448201526064015b60405180910390fd5b6007545f9081526002602081815260408084206001600160a01b038a1685529091529091209081015460ff166108195760405162461bcd60e51b815260206004820152601560248201527f4e6f207374726174656779207375626d697474656400000000000000000000006044820152606401610798565b80548067ffffffffffffffff811115610834576108346128a4565b60405190808252806020026020018201604052801561085d578160200160208202803683370190505b5094508067ffffffffffffffff811115610879576108796128a4565b6040519080825280602002602001820160405280156108a2578160200160208202803683370190505b5093508067ffffffffffffffff8111156108be576108be6128a4565b6040519080825280602002602001820160405280156108e7578160200160208202803683370190505b5092505f5b81811015610a1b57825f018181548110610908576109086128b8565b5f918252602090912060029091020154865160ff90911690879083908110610932576109326128b8565b6020026020010190600581111561094b5761094b612404565b9081600581111561095e5761095e612404565b9052508254839082908110610975576109756128b8565b905f5260205f2090600202015f0160019054906101000a900460ff168582815181106109a3576109a36128b8565b602002602001019060048111156109bc576109bc612404565b908160048111156109cf576109cf612404565b90525082548390829081106109e6576109e66128b8565b905f5260205f20906002020160010154848281518110610a0857610a086128b8565b60209081029190910101526001016108ec565b5050600101549592945090925090565b5f546001600160a01b03163314610a715760405162461bcd60e51b815260206004820152600a60248201526927b7363c9037bbb732b960b11b6044820152606401610798565b610a79611c78565b565b5f8281526005602090815260408083206001600160a01b038516845260010190915290205460ff165b92915050565b5f546001600160a01b03163314610af05760405162461bcd60e51b815260206004820152600a60248201526927b7363c9037bbb732b960b11b6044820152606401610798565b5f60095460ff166003811115610b0857610b08612404565b14610b4b5760405162461bcd60e51b81526020600482015260136024820152722737ba1034b7103932b3b4b9ba3930ba34b7b760691b6044820152606401610798565b600a8110158015610b5d575060c88111155b610ba95760405162461bcd60e51b815260206004820152600e60248201527f496e76616c696420726f756e64730000000000000000000000000000000000006044820152606401610798565b600d8190556007546040518281527f9ca488ee3ab8666b1354449cfe3927640726b3ff1b87c8ffce772a7594034650906020015b60405180910390a250565b5f610bf1611da2565b905090565b5f546001600160a01b03163314610c3c5760405162461bcd60e51b815260206004820152600a60248201526927b7363c9037bbb732b960b11b6044820152606401610798565b6001600160a01b038116610c925760405162461bcd60e51b815260206004820152600e60248201527f496e76616c6964206f7261636c650000000000000000000000000000000000006044820152606401610798565b6001805473ffffffffffffffffffffffffffffffffffffffff19166001600160a01b0383169081179091556040517f2fd2b8fed5a6bb25ab7a2bdf98499d74ec6c0dd362012ceed5c90626dc3a8ac5905f90a250565b5f81815260066020526040902060030154606090819060ff16610d4d5760405162461bcd60e51b815260206004820152601960248201527f526573756c7473206e6f74207075626c697368656420796574000000000000006044820152606401610798565b5f838152600660209081526040918290206001810180548451818502810185019095528085529193909260028501928491830182828015610db557602002820191905f5260205f20905b81546001600160a01b03168152600190910190602001808311610d97575b5050505050915080805480602002602001604051908101604052809291908181526020018280548015610e0557602002820191905f5260205f20905b815481526020019060010190808311610df1575b505050505090509250925050915091565b6004602052815f5260405f208181548110610e2f575f80fd5b5f918252602090912001546001600160a01b03169150829050565b5f60095460ff166003811115610e6257610e62612404565b14610ea55760405162461bcd60e51b81526020600482015260136024820152722737ba1034b7103932b3b4b9ba3930ba34b7b760691b6044820152606401610798565b662386f26fc10000341015610efc5760405162461bcd60e51b815260206004820152601660248201527f496e73756666696369656e7420656e74727920666565000000000000000000006044820152606401610798565b8483148015610f0a57508281145b610f565760405162461bcd60e51b815260206004820152601160248201527f4d69736d617463686564206172726179730000000000000000000000000000006044820152606401610798565b600a851115610fa75760405162461bcd60e51b815260206004820152600e60248201527f546f6f206d616e792072756c65730000000000000000000000000000000000006044820152606401610798565b6007545f908152600260208181526040808420338552909152909120015460ff16156110155760405162461bcd60e51b815260206004820152601a60248201527f537472617465677920616c7265616479207375626d69747465640000000000006044820152606401610798565b6007545f9081526002602090815260408083203384529091528120611039916122f8565b6007545f9081526002602081815260408084203385528252808420928301805460ff191660011790558051601f8c018390048302810183019091528a81529192916110a0918d91908d908d90819084018382808284375f92019190915250611dd692505050565b90506110ab81611de3565b506110b68133611df2565b506001546110ce9082906001600160a01b0316611df2565b50600182018190555f5b8781101561125a576111368989838181106110f5576110f56128b8565b905060200201602081019061110a91906128cc565b88888481811061111c5761111c6128b8565b905060200201602081019061113191906128ea565b611e04565b825f0160405180606001604052808b8b85818110611156576111566128b8565b905060200201602081019061116b91906128cc565b600581111561117c5761117c612404565b8152602001898985818110611193576111936128b8565b90506020020160208101906111a891906128ea565b60048111156111b9576111b9612404565b81526020018787858181106111d0576111d06128b8565b602090810292909201359092528354600181810186555f958652919094208351600290950201805493949093909250839160ff199091169083600581111561121a5761121a612404565b021790555060208201518154829061ff00191661010083600481111561124257611242612404565b021790555060409190910151600191820155016110d8565b506007545f9081526004602090815260408220805460018101825590835290822001805473ffffffffffffffffffffffffffffffffffffffff191633179055600b8054916112a78361291c565b91905055503460086006015f8282546112c09190612934565b90915550506007545f908152600560205260409020600b546064906112e790603290612947565b6112f1919061295e565b60028083018290551115611306576002818101555b60075460405190815233907f7f996dafed49a846774861911b5a7125b3f1ade25d0e4cfb9143679dea83ff249060200160405180910390a2505050505050505050505050565b5f8281526006602052604081206003015460ff166113ac5760405162461bcd60e51b815260206004820152601960248201527f526573756c7473206e6f74207075626c697368656420796574000000000000006044820152606401610798565b505f9182526006602090815260408084206001600160a01b0393909316845291905290205490565b5f336001600160a01b03831614806113f657506001546001600160a01b031633145b8061140a57505f546001600160a01b031633145b6114565760405162461bcd60e51b815260206004820152600e60248201527f4e6f7420617574686f72697a65640000000000000000000000000000000000006044820152606401610798565b6007545f9081526002602081815260408084206001600160a01b03871685529091529091209081015460ff166114ce5760405162461bcd60e51b815260206004820152601560248201527f4e6f207374726174656779207375626d697474656400000000000000000000006044820152606401610798565b60018101545b9392505050565b6001546001600160a01b03163314806114fd57505f546001600160a01b031633145b6115375760405162461bcd60e51b815260206004820152600b60248201526a4f6e6c79206f7261636c6560a81b6044820152606401610798565b60075489146115885760405162461bcd60e51b815260206004820152601260248201527f496e76616c696420746f75726e616d656e7400000000000000000000000000006044820152606401610798565b600160095460ff1660038111156115a1576115a1612404565b146115ee5760405162461bcd60e51b815260206004820152600b60248201527f4e6f742070656e64696e670000000000000000000000000000000000000000006044820152606401610798565b86851461163d5760405162461bcd60e51b815260206004820152601160248201527f4d69736d617463686564206172726179730000000000000000000000000000006044820152606401610798565b82811461168c5760405162461bcd60e51b815260206004820152601160248201527f4d69736d617463686564207072697a65730000000000000000000000000000006044820152606401610798565b5f898152600660205260409020600381015460ff16156116ee5760405162461bcd60e51b815260206004820152601160248201527f416c7265616479207075626c69736865640000000000000000000000000000006044820152606401610798565b5f5b8881101561175d5787878281811061170a5761170a6128b8565b90506020020135825f015f8c8c85818110611727576117276128b8565b905060200201602081019061173c919061252d565b6001600160a01b0316815260208101919091526040015f20556001016116f0565b5061176c600182018686612316565b5061177b600282018484612380565b5060038101805460ff199081166001179091556009805490911660021790556040518a907f19e48af67fca3cde658dbcc800b2c2ac6bea36379321c5557c4b8ba0c1662150906117d290889088908890889061297d565b60405180910390a26117e38a611f69565b50505050505050505050565b61182a6040805160e081019091525f808252602082019081526020015f81526020015f81526020015f81526020015f81526020015f81525090565b6040805160e08101909152600880548252600954602083019060ff16600381111561185757611857612404565b600381111561186857611868612404565b815260200160028201548152602001600382015481526020016004820154815260200160058201548152602001600682015481525050905090565b5f60095460ff1660038111156118bb576118bb612404565b146118fe5760405162461bcd60e51b81526020600482015260136024820152722737ba1034b7103932b3b4b9ba3930ba34b7b760691b6044820152606401610798565b6007545f908152600260208181526040808420338552909152909120015460ff1661196b5760405162461bcd60e51b815260206004820152601c60248201527f4d757374207375626d697420737472617465677920746f20766f7465000000006044820152606401610798565b6007545f908152600560209081526040808320338452600181019092529091205460ff16156119dc5760405162461bcd60e51b815260206004820152600d60248201527f416c726561647920766f746564000000000000000000000000000000000000006044820152606401610798565b335f908152600182810160205260408220805460ff191690911790558154908290611a068361291c565b9091555050600754815460028301546040513393927f0271f53eebbe20450d9578f28ec279231556c34545b30e2278d754ffd39cd63c92611a4f92918252602082015260400190565b60405180910390a36002810154815410611a6b57611a6b611c78565b50565b6007545f9081526002602090815260408083206001600160a01b038516845290915281208054606092839283928067ffffffffffffffff811115611ab457611ab46128a4565b604051908082528060200260200182016040528015611add578160200160208202803683370190505b5095508067ffffffffffffffff811115611af957611af96128a4565b604051908082528060200260200182016040528015611b22578160200160208202803683370190505b5094508067ffffffffffffffff811115611b3e57611b3e6128a4565b604051908082528060200260200182016040528015611b67578160200160208202803683370190505b5093505f5b81811015611c63575f835f018281548110611b8957611b896128b8565b5f91825260209091206002909102018054895191925060ff1690899084908110611bb557611bb56128b8565b60200260200101906005811115611bce57611bce612404565b90816005811115611be157611be1612404565b81525050805f0160019054906101000a900460ff16878381518110611c0857611c086128b8565b60200260200101906004811115611c2157611c21612404565b90816004811115611c3457611c34612404565b815250508060010154868381518110611c4f57611c4f6128b8565b602090810291909101015250600101611b6c565b5050600201549395929450909260ff16919050565b5f60095460ff166003811115611c9057611c90612404565b14611cdd5760405162461bcd60e51b815260206004820152600e60248201527f496e76616c6964207374617475730000000000000000000000000000000000006044820152606401610798565b600b5460021115611d305760405162461bcd60e51b815260206004820152601760248201527f4e656564206174206c65617374203220706c61796572730000000000000000006044820152606401610798565b6009805460ff1916600190811790915542600a55600b5490600290611d559083612a10565b611d5f9083612947565b611d69919061295e565b600c55600754600b546040519081527fbc7efbd054762c7024dd5838b4eef6be3c9982e8a7397e2b3949e1b52263a61c90602001610bdd565b5f46600103611db15750600190565b4662aa36a703611dc2575061271190565b46617a6903611dd157505f1990565b505f90565b5f6114d4838360066120b9565b5f611dee82306121d9565b5090565b5f611dfd83836121d9565b5090919050565b6001826005811115611e1857611e18612404565b1480611e3557506002826005811115611e3357611e33612404565b145b15611ec4575f816004811115611e4d57611e4d612404565b1480611e6a57506001816004811115611e6857611e68612404565b145b611ec05760405162461bcd60e51b815260206004820152602160248201527f496e76616c6964206f70657261746f7220666f72206d6f7665207375626a65636044820152601d60fa1b6064820152608401610798565b5050565b6004816004811115611ed857611ed8612404565b1480611ef557506002816004811115611ef357611ef3612404565b145b80611f1157506003816004811115611f0f57611f0f612404565b145b611ec05760405162461bcd60e51b8152602060048201526024808201527f496e76616c6964206f70657261746f7220666f72206e756d65726963207375626044820152631a9958dd60e21b6064820152608401610798565b5f818152600660205260408120905b600182015481101561200557816001018181548110611f9957611f996128b8565b5f918252602090912001546002830180546001600160a01b03909216916108fc919084908110611fcb57611fcb6128b8565b905f5260205f20015490811502906040515f60405180830381858888f19350505050158015611ffc573d5f5f3e3d5ffd5b50600101611f78565b5060098054600360ff19918216811783555f858152602082905260409020600880548255935460018281018054939560ff90931694909390921691849081111561205157612051612404565b02179055506002828101549082015560038083015490820155600480830154908201556005808301549082015560069182015491015560405182907fe3416bedc8b1254602d8c58495d878a5c5b3ca4aaf8b5ac27f682b30036ed3ef905f90a2611ec0612262565b7f9e7b61f58c47dc699ac88507c4f5bb9f121c03808c5676a8078fe583e46497015460405163045fc19560e11b81525f917f9e7b61f58c47dc699ac88507c4f5bb9f121c03808c5676a8078fe583e4649700916001600160a01b03909116906308bf832a90612132908890339089908990600401612a23565b6020604051808303815f875af115801561214e573d5f5f3e3d5ffd5b505050506040513d601f19601f820116820180604052508101906121729190612a86565b8154604051630f8e573b60e21b8152600481018390523360248201529193506001600160a01b031690633e395cec906044015f604051808303815f87803b1580156121bb575f5ffd5b505af11580156121cd573d5f5f3e3d5ffd5b50505050509392505050565b5f7f9e7b61f58c47dc699ac88507c4f5bb9f121c03808c5676a8078fe583e46497008054604051635ca4b5b160e11b8152600481018690526001600160a01b03858116602483015292935091169063b9496b62906044015f604051808303815f87803b158015612247575f5ffd5b505af1158015612259573d5f5f3e3d5ffd5b50505050505050565b60078054600101908190556040805160e0810182528281525f602082018190528183018190526060820181905260808201819052603260a0830181905260c090920181905260088490556009805460ff19169055600a819055600b819055600c819055600d91909155600e81905590517f113d32d0b7aec15a8c7f50af4cb42f4695e5b95524ed69519ac88d6c1f1f40f69190a2565b5080545f8255600202905f5260205f2090810190611a6b91906123b9565b828054828255905f5260205f20908101928215612374579160200282015b8281111561237457815473ffffffffffffffffffffffffffffffffffffffff19166001600160a01b03843516178255602090920191600190910190612334565b50611dee9291506123d9565b828054828255905f5260205f20908101928215612374579160200282015b8281111561237457823582559160200191906001019061239e565b5b80821115611dee57805461ffff191681555f60018201556002016123ba565b5b80821115611dee575f81556001016123da565b5f602082840312156123fd575f5ffd5b5035919050565b634e487b7160e01b5f52602160045260245ffd5b6004811061242857612428612404565b9052565b8151815260208083015160e083019161244790840182612418565b5060408301516040830152606083015160608301526080830151608083015260a083015160a083015260c083015160c083015292915050565b5f8151808452602084019350602083015f5b828110156124b95781516001600160a01b0316865260209586019590910190600101612492565b5093949350505050565b602081525f6114d46020830184612480565b87815260e081016124e96020830189612418565b60408201969096526060810194909452608084019290925260a083015260c09091015292915050565b80356001600160a01b0381168114612528575f5ffd5b919050565b5f6020828403121561253d575f5ffd5b6114d482612512565b5f8151808452602084019350602083015f5b828110156124b95781516006811061257257612572612404565b86526020958601959190910190600101612558565b5f8151808452602084019350602083015f5b828110156124b9578151600581106125b3576125b3612404565b86526020958601959190910190600101612599565b5f8151808452602084019350602083015f5b828110156124b95781518652602095860195909101906001016125da565b848152608060208201525f6126106080830186612546565b82810360408401526126228186612587565b9050828103606084015261263681856125c8565b979650505050505050565b5f5f60408385031215612652575f5ffd5b8235915061266260208401612512565b90509250929050565b604081525f61267d6040830185612480565b828103602084015261268f81856125c8565b95945050505050565b5f5f604083850312156126a9575f5ffd5b50508035926020909101359150565b5f5f83601f8401126126c8575f5ffd5b50813567ffffffffffffffff8111156126df575f5ffd5b6020830191508360208285010111156126f6575f5ffd5b9250929050565b5f5f83601f84011261270d575f5ffd5b50813567ffffffffffffffff811115612724575f5ffd5b6020830191508360208260051b85010111156126f6575f5ffd5b5f5f5f5f5f5f5f5f5f60a08a8c031215612756575f5ffd5b8935985060208a013567ffffffffffffffff811115612773575f5ffd5b61277f8c828d016126b8565b90995097505060408a013567ffffffffffffffff81111561279e575f5ffd5b6127aa8c828d016126fd565b90975095505060608a013567ffffffffffffffff8111156127c9575f5ffd5b6127d58c828d016126fd565b90955093505060808a013567ffffffffffffffff8111156127f4575f5ffd5b6128008c828d016126fd565b915080935050809150509295985092959850929598565b5f5f5f5f5f5f5f5f5f60a08a8c03121561282f575f5ffd5b8935985060208a013567ffffffffffffffff81111561284c575f5ffd5b61277f8c828d016126fd565b608081525f61286a6080830187612546565b828103602084015261287c8187612587565b9050828103604084015261289081866125c8565b915050821515606083015295945050505050565b634e487b7160e01b5f52604160045260245ffd5b634e487b7160e01b5f52603260045260245ffd5b5f602082840312156128dc575f5ffd5b8135600681106114d4575f5ffd5b5f602082840312156128fa575f5ffd5b8135600581106114d4575f5ffd5b634e487b7160e01b5f52601160045260245ffd5b5f6001820161292d5761292d612908565b5060010190565b80820180821115610aa457610aa4612908565b8082028115828204841417610aa457610aa4612908565b5f8261297857634e487b7160e01b5f52601260045260245ffd5b500490565b604080825281018490525f8560608301825b878110156129bd576001600160a01b036129a884612512565b1682526020928301929091019060010161298f565b5083810360208501528481527f07ffffffffffffffffffffffffffffffffffffffffffffffffffffffffffffff8511156129f5575f5ffd5b8460051b915081866020830137016020019695505050505050565b81810381811115610aa457610aa4612908565b8481526001600160a01b0384166020820152608060408201525f8351806080840152806020860160a085015e5f60a0828501015260a0601f19601f83011684010191505060548310612a7757612a77612404565b82606083015295945050505050565b5f60208284031215612a96575f5ffd5b505191905056fea164736f6c634300081b000a",
  "linkReferences": {},
  "deployedLinkReferences": {}
}