{
  "_format": "hh-sol-artifact-1",
  "contractName": "PrisonersDilemma",
  "sourceName": "contracts/PrisonersDilemma.sol",
  "abi": [
    {
      "inputs": [
        {
          "internalType": "address",
          "name": "_inputVerifier",
          "type": "address"
        }
      ],
      "stateMutability": "nonpayable",
      "type": "constructor"
    },
    {
      "anonymous": false,
      "inputs": [
        {
          "indexed": true,
          "internalType": "address",
          "name": "oracle",
          "type": "address"
        }
      ],
      "name": "ComputationOracleSet",
      "type": "event"
    },
    {
      "anonymous": false,
      "inputs": [
        {
          "indexed": true,
          "internalType": "address",
          "name": "verifier",
          "type": "address"
        }
      ],
      "name": "InputVerifierSet",
      "type": "event"
    },
    {
      "anonymous": false,
      "inputs": [
        {
          "indexed": true,
          "internalType": "uint256",
          "name": "tournamentId",
          "type": "uint256"
        },
        {
          "indexed": false,
          "internalType": "address[]",
          "name": "winners",
          "type": "address[]"
        },
        {
          "indexed": false,
          "internalType": "uint256[]",
          "name": "prizes",
          "type": "uint256[]"
        }
      ],
      "name": "ResultsPublished",
      "type": "event"
    },
    {
      "anonymous": false,
      "inputs": [
        {
          "indexed": true,
          "internalType": "address",
          "name": "player",
          "type": "address"
        },
        {
          "indexed": false,
          "internalType": "uint256",
          "name": "tournamentId",
          "type": "uint256"
        }
      ],
      "name": "StrategySubmitted",
      "type": "event"
    },
    {
      "anonymous": false,
      "inputs": [
        {
          "indexed": true,
          "internalType": "uint256",
          "name": "tournamentId",
          "type": "uint256"
        }
      ],
      "name": "TournamentCreated",
      "type": "event"
    },
    {
      "anonymous": false,
      "inputs": [
        {
          "indexed": true,
          "internalType": "uint256",
          "name": "tournamentId",
          "type": "uint256"
        }
      ],
      "name": "TournamentFinished",
      "type": "event"
    },
    {
      "anonymous": false,
      "inputs": [
        {
          "indexed": true,
          "internalType": "uint256",
          "name": "tournamentId",
          "type": "uint256"
        },
        {
          "indexed": false,
          "internalType": "uint256",
          "name": "rounds",
          "type": "uint256"
        }
      ],
      "name": "TournamentRoundsSet",
      "type": "event"
    },
    {
      "anonymous": false,
      "inputs": [
        {
          "indexed": true,
          "internalType": "uint256",
          "name": "tournamentId",
          "type": "uint256"
        },
        {
          "indexed": false,
          "internalType": "uint256",
          "name": "playerCount",
          "type": "uint256"
        }
      ],
      "name": "TournamentStarted",
      "type": "event"
    },
    {
      "anonymous": false,
      "inputs": [
        {
          "indexed": true,
          "internalType": "uint256",
          "name": "tournamentId",
          "type": "uint256"
        },
        {
          "indexed": true,
          "internalType": "address",
          "name": "voter",
          "type": "address"
        },
        {
          "indexed": false,
          "internalType": "uint256",
          "name": "currentVotes",
          "type": "uint256"
        },
        {
          "indexed": false,
          "internalType": "uint256",
          "name": "requiredVotes",
          "type": "uint256"
        }
      ],
      "name": "VoteCast",
      "type": "event"
    },
    {
      "inputs": [],
      "name": "DEFAULT_ROUNDS",
      "outputs": [
        {
          "internalType": "uint256",
          "name": "",
          "type": "uint256"
        }
      ],
      "stateMutability": "view",
      "type": "function"
    },
    {
      "inputs": [],
      "name": "ENTRY_FEE",
      "outputs": [
        {
          "internalType": "uint256",
          "name": "",
          "type": "uint256"
        }
      ],
      "stateMutability": "view",
      "type": "function"
    },
    {
      "inputs": [],
      "name": "MAX_ROUNDS",
      "outputs": [
        {
          "internalType": "uint256",
          "name": "",
          "type": "uint256"
        }
      ],
      "stateMutability": "view",
      "type": "function"
    },
    {
      "inputs": [],
      "name": "MAX_RULES",
      "outputs": [
        {
          "internalType": "uint256",
          "name": "",
          "type": "uint256"
        }
      ],
      "stateMutability": "view",
      "type": "function"
    },
    {
      "inputs": [],
      "name": "MIN_ROUNDS",
      "outputs": [
        {
          "internalType": "uint256",
          "name": "",
          "type": "uint256"
        }
      ],
      "stateMutability": "view",
      "type": "function"
    },
    {
      "inputs": [],
      "name": "VOTE_QUORUM",
      "outputs": [
        {
          "internalType": "uint256",
          "name": "",
          "type": "uint256"
        }
      ],
      "stateMutability": "view",
      "type": "function"
    },
    {
      "inputs": [],
      "name": "WINNER_PERCENTAGE",
      "outputs": [
        {
          "internalType": "uint256",
          "name": "",
          "type": "uint256"
        }
      ],
      "stateMutability": "view",
      "type": "function"
    },
    {
      "inputs": [],
      "name": "computationOracle",
      "outputs": [
        {
          "internalType": "address",
          "name": "",
          "type": "address"
        }
      ],
      "stateMutability": "view",
      "type": "function"
    },
    {
      "inputs": [],
      "name": "currentTournament",
      "outputs": [
        {
          "internalType": "uint256",
          "name": "tournamentId",
          "type": "uint256"
        },
        {
          "internalType": "enum PrisonersDilemma.TournamentStatus",
          "name": "status",
          "type": "uint8"
        },
        {
          "internalType": "uint256",
          "name": "startTime",
          "type": "uint256"
        },
        {
          "internalType": "uint256",
          "name": "playerCount",
          "type": "uint256"
        },
        {
          "internalType": "uint256",
          "name": "totalGames",
          "type": "uint256"
        },
        {
          "internalType": "uint256",
          "name": "rounds",
          "type": "uint256"
        },
        {
          "internalType": "uint256",
          "name": "prizePool",
          "type": "uint256"
        }
      ],
      "stateMutability": "view",
      "type": "function"
    },
    {
      "inputs": [],
      "name": "currentTournamentId",
      "outputs": [
        {
          "internalType": "uint256",
          "name": "",
          "type": "uint256"
        }
      ],
      "stateMutability": "view",
      "type": "function"
    },
    {
      "inputs": [],
      "name": "forceStartTournament",
      "outputs": [],
      "stateMutability": "nonpayable",
      "type": "function"
    },
    {
      "inputs": [
        {
          "internalType": "address",
          "name": "player",
          "type": "address"
        }
      ],
      "name": "getEncryptedStrategyForComputation",
      "outputs": [
        {
          "internalType": "uint256[]",
          "name": "encryptedActions",
          "type": "uint256[]"
        },
        {
          "internalType": "uint256",
          "name": "encryptedDefaultAction",
          "type": "uint256"
        },
        {
          "internalType": "enum PrisonersDilemma.ConditionSubject[]",
          "name": "subjects",
          "type": "uint8[]"
        },
        {
          "internalType": "enum PrisonersDilemma.ConditionOperator[]",
          "name": "operators",
          "type": "uint8[]"
        },
        {
          "internalType": "uint256[]",
          "name": "values",
          "type": "uint256[]"
        }
      ],
      "stateMutability": "view",
      "type": "function"
    },
    {
      "inputs": [
        {
          "internalType": "uint256",
          "name": "tournamentId",
          "type": "uint256"
        },
        {
          "internalType": "address",
          "name": "player",
          "type": "address"
        }
      ],
      "name": "getPlayerScore",
      "outputs": [
        {
          "internalType": "uint256",
          "name": "",
          "type": "uint256"
        }
      ],
      "stateMutability": "view",
      "type": "function"
    },
    {
      "inputs": [
        {
          "internalType": "address",
          "name": "player",
          "type": "address"
        }
      ],
      "name": "getStrategy",
      "outputs": [
        {
          "internalType": "enum PrisonersDilemma.ConditionSubject[]",
          "name": "subjects",
          "type": "uint8[]"
        },
        {
          "internalType": "enum PrisonersDilemma.ConditionOperator[]",
          "name": "operators",
          "type": "uint8[]"
        },
        {
          "internalType": "uint256[]",
          "name": "values",
          "type": "uint256[]"
        },
        {
          "internalType": "bool",
          "name": "isSubmitted",
          "type": "bool"
        }
      ],
      "stateMutability": "view",
      "type": "function"
    },
    {
      "inputs": [
        {
          "internalType": "uint256",
          "name": "tournamentId",
          "type": "uint256"
        }
      ],
      "name": "getTournament",
      "outputs": [
        {
          "components": [
            {
              "internalType": "uint256",
              "name": "tournamentId",
              "type": "uint256"
            },
            {
              "internalType": "enum PrisonersDilemma.TournamentStatus",
              "name": "status",
              "type": "uint8"
            },
            {
              "internalType": "uint256",
              "name": "startTime",
              "type": "uint256"
            },
            {
              "internalType": "uint256",
              "name": "playerCount",
              "type": "uint256"
            },
            {
              "internalType": "uint256",
              "name": "totalGames",
              "type": "uint256"
            },
            {
              "internalType": "uint256",
              "name": "rounds",
              "type": "uint256"
            },
            {
              "internalType": "uint256",
              "name": "prizePool",
              "type": "uint256"
            }
          ],
          "internalType": "struct PrisonersDilemma.TournamentInfo",
          "name": "",
          "type": "tuple"
        }
      ],
      "stateMutability": "view",
      "type": "function"
    },
    {
      "inputs": [],
      "name": "getTournamentInfo",
      "outputs": [
        {
          "components": [
            {
              "internalType": "uint256",
              "name": "tournamentId",
              "type": "uint256"
            },
            {
              "internalType": "enum PrisonersDilemma.TournamentStatus",
              "name": "status",
              "type": "uint8"
            },
            {
              "internalType": "uint256",
              "name": "startTime",
              "type": "uint256"
            },
            {
              "internalType": "uint256",
              "name": "playerCount",
              "type": "uint256"
            },
            {
              "internalType": "uint256",
              "name": "totalGames",
              "type": "uint256"
            },
            {
              "internalType": "uint256",
              "name": "rounds",
              "type": "uint256"
            },
            {
              "internalType": "uint256",
              "name": "prizePool",
              "type": "uint256"
            }
          ],
          "internalType": "struct PrisonersDilemma.TournamentInfo",
          "name": "",
          "type": "tuple"
        }
      ],
      "stateMutability": "view",
      "type": "function"
    },
    {
      "inputs": [
        {
          "internalType": "uint256",
          "name": "tournamentId",
          "type": "uint256"
        }
      ],
      "name": "getTournamentPlayers",
      "outputs": [
        {
          "internalType": "address[]",
          "name": "",
          "type": "address[]"
        }
      ],
      "stateMutability": "view",
      "type": "function"
    },
    {
      "inputs": [
        {
          "internalType": "uint256",
          "name": "tournamentId",
          "type": "uint256"
        }
      ],
      "name": "getTournamentWinners",
      "outputs": [
        {
          "internalType": "address[]",
          "name": "",
          "type": "address[]"
        },
        {
          "internalType": "uint256[]",
          "name": "",
          "type": "uint256[]"
        }
      ],
      "stateMutability": "view",
      "type": "function"
    },
    {
      "inputs": [
        {
          "internalType": "uint256",
          "name": "tournamentId",
          "type": "uint256"
        }
      ],
      "name": "getVoteInfo",
      "outputs": [
        {
          "internalType": "uint256",
          "name": "voteCount",
          "type": "uint256"
        },
        {
          "internalType": "uint256",
          "name": "requiredVotes",
          "type": "uint256"
        }
      ],
      "stateMutability": "view",
      "type": "function"
    },
    {
      "inputs": [
        {
          "internalType": "uint256",
          "name": "tournamentId",
          "type": "uint256"
        },
        {
          "internalType": "address",
          "name": "player",
          "type": "address"
        }
      ],
      "name": "hasVoted",
      "outputs": [
        {
          "internalType": "bool",
          "name": "",
          "type": "bool"
        }
      ],
      "stateMutability": "view",
      "type": "function"
    },
    {
      "inputs": [],
      "name": "inputVerifier",
      "outputs": [
        {
          "internalType": "address",
          "name": "",
          "type": "address"
        }
      ],
      "stateMutability": "view",
      "type": "function"
    },
    {
      "inputs": [],
      "name": "owner",
      "outputs": [
        {
          "internalType": "address",
          "name": "",
          "type": "address"
        }
      ],
      "stateMutability": "view",
      "type": "function"
    },
    {
      "inputs": [
        {
          "internalType": "uint256",
          "name": "tournamentId",
          "type": "uint256"
        },
        {
          "internalType": "address[]",
          "name": "players",
          "type": "address[]"
        },
        {
          "internalType": "uint256[]",
          "name": "scores",
          "type": "uint256[]"
        },
        {
          "internalType": "address[]",
          "name": "winners",
          "type": "address[]"
        },
        {
          "internalType": "uint256[]",
          "name": "prizes",
          "type": "uint256[]"
        }
      ],
      "name": "publishResults",
      "outputs": [],
      "stateMutability": "nonpayable",
      "type": "function"
    },
    {
      "inputs": [
        {
          "internalType": "address",
          "name": "oracle",
          "type": "address"
        }
      ],
      "name": "setComputationOracle",
      "outputs": [],
      "stateMutability": "nonpayable",
      "type": "function"
    },
    {
      "inputs": [
        {
          "internalType": "address",
          "name": "verifier",
          "type": "address"
        }
      ],
      "name": "setInputVerifier",
      "outputs": [],
      "stateMutability": "nonpayable",
      "type": "function"
    },
    {
      "inputs": [
        {
          "internalType": "uint256",
          "name": "rounds",
          "type": "uint256"
        }
      ],
      "name": "setTournamentRounds",
      "outputs": [],
      "stateMutability": "nonpayable",
      "type": "function"
    },
    {
      "inputs": [
        {
          "internalType": "bytes",
          "name": "inputProof",
          "type": "bytes"
        },
        {
          "internalType": "enum PrisonersDilemma.ConditionSubject[]",
          "name": "subjects",
          "type": "uint8[]"
        },
        {
          "internalType": "enum PrisonersDilemma.ConditionOperator[]",
          "name": "operators",
          "type": "uint8[]"
        },
        {
          "internalType": "uint256[]",
          "name": "values",
          "type": "uint256[]"
        }
      ],
      "name": "submitStrategy",
      "outputs": [],
      "stateMutability": "payable",
      "type": "function"
    },
    {
      "inputs": [
        {
          "internalType": "uint256",
          "name": "",
          "type": "uint256"
        },
        {
          "internalType": "uint256",
          "name": "",
          "type": "uint256"
        }
      ],
      "name": "tournamentPlayers",
      "outputs": [
        {
          "internalType": "address",
          "name": "",
          "type": "address"
        }
      ],
      "stateMutability": "view",
      "type": "function"
    },
    {
      "inputs": [
        {
          "internalType": "uint256",
          "name": "",
          "type": "uint256"
        }
      ],
      "name": "tournaments",
      "outputs": [
        {
          "internalType": "uint256",
          "name": "tournamentId",
          "type": "uint256"
        },
        {
          "internalType": "enum PrisonersDilemma.TournamentStatus",
          "name": "status",
          "type": "uint8"
        },
        {
          "internalType": "uint256",
          "name": "startTime",
          "type": "uint256"
        },
        {
          "internalType": "uint256",
          "name": "playerCount",
          "type": "uint256"
        },
        {
          "internalType": "uint256",
          "name": "totalGames",
          "type": "uint256"
        },
        {
          "internalType": "uint256",
          "name": "rounds",
          "type": "uint256"
        },
        {
          "internalType": "uint256",
          "name": "prizePool",
          "type": "uint256"
        }
      ],
      "stateMutability": "view",
      "type": "function"
    },
    {
      "inputs": [],
      "name": "voteStartTournament",
      "outputs": [],
      "stateMutability": "nonpayable",
      "type": "function"
    },
    {
      "stateMutability": "payable",
      "type": "receive"
    }
  ],
  "bytecode": "0x608060405234801561000f575f5ffd5b50604051612c12380380612c1283398101604081905261002e91610106565b5f8054336001600160a01b0319918216811783556001805483169091179055600280549091166001600160a01b03841617905560088190556040805160e0810190915281815290602082019081525f602080830182905260408301829052606083018290526032608084015260a0909201528151600990815590820151600a805460ff191660018360038111156100c7576100c7610133565b021790555060408201516002820155606082015160038201556080820151600482015560a0820151600582015560c09091015160069091015550610147565b5f60208284031215610116575f5ffd5b81516001600160a01b038116811461012c575f5ffd5b9392505050565b634e487b7160e01b5f52602160045260245ffd5b612abe806101545f395ff3fe6080604052600436106101c8575f3560e01c80638da5cb5b116100f2578063d0ec6eb111610092578063e86ba67a11610062578063e86ba67a1461056b578063f6d361cc1461057f578063f8806a1314610599578063fc8e7504146105c8575f5ffd5b8063d0ec6eb114610505578063d16d9e5614610524578063d829055e14610543578063dae73b9814610557575f5ffd5b8063a44ef7f3116100cd578063a44ef7f31461049a578063b0ee9690146104c7578063c617b26a146104e6578063c7761fab1461025c575f5ffd5b80638da5cb5b1461045d5780639135e50b1461047b5780639ec296f214610401575f5ffd5b8063404e4520116101685780637503e1b7116101385780637503e1b714610388578063797617a2146103e2578063843cbbc6146104015780638d82427314610415575f5ffd5b8063404e45201461031e57806341d355821461033257806343859632146103465780635cc20f1514610375575f5ffd5b80631a774e54116101a35780631a774e541461025c57806326f7519a1461027e5780632f50d6dc146102aa5780633155d2ee146102ee575f5ffd5b806311609b97146101d3578063150eb5b8146101f45780631a5bd7fc14610230575f5ffd5b366101cf57005b5f5ffd5b3480156101de575f5ffd5b506101f26101ed3660046122f9565b6105dd565b005b3480156101ff575f5ffd5b50600154610213906001600160a01b031681565b6040516001600160a01b0390911681526020015b60405180910390f35b34801561023b575f5ffd5b5061024f61024a366004612319565b6106c7565b6040516102279190612358565b348015610267575f5ffd5b50610270603281565b604051908152602001610227565b348015610289575f5ffd5b5061029d610298366004612319565b6107c1565b60405161022791906123ef565b3480156102b5575f5ffd5b50600954600a54600b54600c54600d54600e54600f546102db969560ff16949392919087565b6040516102279796959493929190612401565b3480156102f9575f5ffd5b5061030d6103083660046122f9565b61082a565b6040516102279594939291906124f0565b348015610329575f5ffd5b506101f2610ba4565b34801561033d575f5ffd5b5061027060c881565b348015610351575f5ffd5b5061036561036036600461254e565b610bf4565b6040519015158152602001610227565b6101f26103833660046125c0565b610c23565b348015610393575f5ffd5b506102db6103a2366004612319565b600460208190525f91825260409091208054600182015460028301546003840154948401546005850154600690950154939560ff90931694919390919087565b3480156103ed575f5ffd5b506101f26103fc366004612319565b6111cf565b34801561040c575f5ffd5b50610270600a81565b348015610420575f5ffd5b5061044861042f366004612319565b5f90815260066020526040902080546002909101549091565b60408051928352602083019190915201610227565b348015610468575f5ffd5b505f54610213906001600160a01b031681565b348015610486575f5ffd5b506101f26104953660046122f9565b61130d565b3480156104a5575f5ffd5b506104b96104b4366004612319565b6113f2565b6040516102279291906126ba565b3480156104d2575f5ffd5b506102136104e13660046126e7565b611520565b3480156104f1575f5ffd5b5061027061050036600461254e565b611554565b348015610510575f5ffd5b506101f261051f366004612707565b6115dc565b34801561052f575f5ffd5b50600254610213906001600160a01b031681565b34801561054e575f5ffd5b5061024f6118f0565b348015610562575f5ffd5b506101f26119a4565b348015610576575f5ffd5b50610270601e81565b34801561058a575f5ffd5b50610270662386f26fc1000081565b3480156105a4575f5ffd5b506105b86105b33660046122f9565b611b70565b60405161022794939291906127e0565b3480156105d3575f5ffd5b5061027060085481565b5f546001600160a01b031633146106285760405162461bcd60e51b815260206004820152600a60248201526927b7363c9037bbb732b960b11b60448201526064015b60405180910390fd5b6001600160a01b03811661067e5760405162461bcd60e51b815260206004820152601060248201527f496e76616c696420766572696669657200000000000000000000000000000000604482015260640161061f565b600280546001600160a01b0319166001600160a01b0383169081179091556040517f2a2edf946c4c3ea69150ca93737844ddaf6dac8ad664e5ebf55ad71340de258e905f90a250565b6107026040805160e081019091525f808252602082019081526020015f81526020015f81526020015f81526020015f81526020015f81525090565b6008548203610785576040805160e08101909152600980548252600a54602083019060ff16600381111561073857610738612330565b600381111561074957610749612330565b81526002820154602082015260038201546040820152600482015460608201526005820154608082015260069091015460a09091015292915050565b5f82815260046020908152604091829020825160e08101909352805483526001810154909183019060ff16600381111561073857610738612330565b5f8181526005602090815260409182902080548351818402810184019094528084526060939283018282801561081e57602002820191905f5260205f20905b81546001600160a01b03168152600190910190602001808311610800575b50505050509050919050565b6001546060905f908290819081906001600160a01b031633148061085757505f546001600160a01b031633145b6108915760405162461bcd60e51b815260206004820152600b60248201526a4f6e6c79206f7261636c6560a81b604482015260640161061f565b6008545f9081526003602090815260408083206001600160a01b038a1684529091529020600281015460ff166109095760405162461bcd60e51b815260206004820152601560248201527f4e6f207374726174656779207375626d69747465640000000000000000000000604482015260640161061f565b80548067ffffffffffffffff8111156109245761092461282c565b60405190808252806020026020018201604052801561094d578160200160208202803683370190505b5096508067ffffffffffffffff8111156109695761096961282c565b604051908082528060200260200182016040528015610992578160200160208202803683370190505b5094508067ffffffffffffffff8111156109ae576109ae61282c565b6040519080825280602002602001820160405280156109d7578160200160208202803683370190505b5093508067ffffffffffffffff8111156109f3576109f361282c565b604051908082528060200260200182016040528015610a1c578160200160208202803683370190505b5092505f5b81811015610b9257825f018181548110610a3d57610a3d612840565b905f5260205f20906003020160020154888281518110610a5f57610a5f612840565b602002602001018181525050825f018181548110610a7f57610a7f612840565b5f918252602090912060039091020154865160ff90911690879083908110610aa957610aa9612840565b60200260200101906005811115610ac257610ac2612330565b90816005811115610ad557610ad5612330565b9052508254839082908110610aec57610aec612840565b905f5260205f2090600302015f0160019054906101000a900460ff16858281518110610b1a57610b1a612840565b60200260200101906004811115610b3357610b33612330565b90816004811115610b4657610b46612330565b9052508254839082908110610b5d57610b5d612840565b905f5260205f20906003020160010154848281518110610b7f57610b7f612840565b6020908102919091010152600101610a21565b50506001015494969495509193909250565b5f546001600160a01b03163314610bea5760405162461bcd60e51b815260206004820152600a60248201526927b7363c9037bbb732b960b11b604482015260640161061f565b610bf2611d7a565b565b5f8281526006602090815260408083206001600160a01b038516845260010190915290205460ff165b92915050565b5f600a5460ff166003811115610c3b57610c3b612330565b14610c7e5760405162461bcd60e51b81526020600482015260136024820152722737ba1034b7103932b3b4b9ba3930ba34b7b760691b604482015260640161061f565b662386f26fc10000341015610cd55760405162461bcd60e51b815260206004820152601660248201527f496e73756666696369656e7420656e7472792066656500000000000000000000604482015260640161061f565b8483148015610ce357508281145b610d2f5760405162461bcd60e51b815260206004820152601160248201527f4d69736d61746368656420617272617973000000000000000000000000000000604482015260640161061f565b600a851115610d805760405162461bcd60e51b815260206004820152600e60248201527f546f6f206d616e792072756c6573000000000000000000000000000000000000604482015260640161061f565b6008545f90815260036020908152604080832033845290915290206002015460ff1615610def5760405162461bcd60e51b815260206004820152601a60248201527f537472617465677920616c7265616479207375626d6974746564000000000000604482015260640161061f565b600254604051631290746b60e21b81525f916001600160a01b031690634a41d1ac90610e239033908d908d90600401612854565b5f604051808303815f875af1158015610e3e573d5f5f3e3d5ffd5b505050506040513d5f823e601f3d908101601f19168201604052610e659190810190612892565b9050610e7286600161296e565b815114610ec15760405162461bcd60e51b815260206004820152601a60248201527f496e76616c696420696e7075742070726f6f66206c656e677468000000000000604482015260640161061f565b6008545f9081526003602090815260408083203384529091528120610ee5916121eb565b6008545f908152600360209081526040808320338452909152812060028101805460ff19166001179055825190918391610f2157610f21612840565b602090810291909101015160018201555f5b878110156110eb57610f91898983818110610f5057610f50612840565b9050602002016020810190610f659190612981565b888884818110610f7757610f77612840565b9050602002016020810190610f8c919061299f565b611ea4565b815f0160405180608001604052808b8b85818110610fb157610fb1612840565b9050602002016020810190610fc69190612981565b6005811115610fd757610fd7612330565b8152602001898985818110610fee57610fee612840565b9050602002016020810190611003919061299f565b600481111561101457611014612330565b815260200187878581811061102b5761102b612840565b90506020020135815260200185846001611045919061296e565b8151811061105557611055612840565b6020908102919091018101519091528254600181810185555f9485529190932082516003909402018054929390929091839160ff19169083600581111561109e5761109e612330565b021790555060208201518154829061ff0019166101008360048111156110c6576110c6612330565b0217905550604082015160018083019190915560609092015160029091015501610f33565b506008545f908152600560209081526040822080546001810182559083529082200180546001600160a01b03191633179055600c80549161112b836129bd565b91905055503460096006015f828254611144919061296e565b90915550506008545f908152600660205260409020600c5460649061116b906032906129d5565b61117591906129ec565b6002808301829055111561118a576002818101555b60085460405190815233907f7f996dafed49a846774861911b5a7125b3f1ade25d0e4cfb9143679dea83ff249060200160405180910390a25050505050505050505050565b5f546001600160a01b031633146112155760405162461bcd60e51b815260206004820152600a60248201526927b7363c9037bbb732b960b11b604482015260640161061f565b5f600a5460ff16600381111561122d5761122d612330565b146112705760405162461bcd60e51b81526020600482015260136024820152722737ba1034b7103932b3b4b9ba3930ba34b7b760691b604482015260640161061f565b600a8110158015611282575060c88111155b6112ce5760405162461bcd60e51b815260206004820152600e60248201527f496e76616c696420726f756e6473000000000000000000000000000000000000604482015260640161061f565b600e8190556008546040518281527f9ca488ee3ab8666b1354449cfe3927640726b3ff1b87c8ffce772a7594034650906020015b60405180910390a250565b5f546001600160a01b031633146113535760405162461bcd60e51b815260206004820152600a60248201526927b7363c9037bbb732b960b11b604482015260640161061f565b6001600160a01b0381166113a95760405162461bcd60e51b815260206004820152600e60248201527f496e76616c6964206f7261636c65000000000000000000000000000000000000604482015260640161061f565b600180546001600160a01b0319166001600160a01b0383169081179091556040517f2fd2b8fed5a6bb25ab7a2bdf98499d74ec6c0dd362012ceed5c90626dc3a8ac5905f90a250565b5f81815260076020526040902060030154606090819060ff166114575760405162461bcd60e51b815260206004820152601960248201527f526573756c7473206e6f74207075626c69736865642079657400000000000000604482015260640161061f565b5f8381526007602090815260409182902060018101805484518185028101850190955280855291939092600285019284918301828280156114bf57602002820191905f5260205f20905b81546001600160a01b031681526001909101906020018083116114a1575b505050505091508080548060200260200160405190810160405280929190818152602001828054801561150f57602002820191905f5260205f20905b8154815260200190600101908083116114fb575b505050505090509250925050915091565b6005602052815f5260405f208181548110611539575f80fd5b5f918252602090912001546001600160a01b03169150829050565b5f8281526007602052604081206003015460ff166115b45760405162461bcd60e51b815260206004820152601960248201527f526573756c7473206e6f74207075626c69736865642079657400000000000000604482015260640161061f565b505f9182526007602090815260408084206001600160a01b0393909316845291905290205490565b6001546001600160a01b03163314806115fe57505f546001600160a01b031633145b6116385760405162461bcd60e51b815260206004820152600b60248201526a4f6e6c79206f7261636c6560a81b604482015260640161061f565b60085489146116895760405162461bcd60e51b815260206004820152601260248201527f496e76616c696420746f75726e616d656e740000000000000000000000000000604482015260640161061f565b6001600a5460ff1660038111156116a2576116a2612330565b146116ef5760405162461bcd60e51b815260206004820152600b60248201527f4e6f742070656e64696e67000000000000000000000000000000000000000000604482015260640161061f565b86851461173e5760405162461bcd60e51b815260206004820152601160248201527f4d69736d61746368656420617272617973000000000000000000000000000000604482015260640161061f565b82811461178d5760405162461bcd60e51b815260206004820152601160248201527f4d69736d617463686564207072697a6573000000000000000000000000000000604482015260640161061f565b5f898152600760205260409020600381015460ff16156117ef5760405162461bcd60e51b815260206004820152601160248201527f416c7265616479207075626c6973686564000000000000000000000000000000604482015260640161061f565b5f5b8881101561185e5787878281811061180b5761180b612840565b90506020020135825f015f8c8c8581811061182857611828612840565b905060200201602081019061183d91906122f9565b6001600160a01b0316815260208101919091526040015f20556001016117f1565b5061186d600182018686612209565b5061187c60028201848461226a565b5060038101805460ff19908116600117909155600a805490911660021790556040518a907f19e48af67fca3cde658dbcc800b2c2ac6bea36379321c5557c4b8ba0c1662150906118d3908890889088908890612a0b565b60405180910390a26118e48a612009565b50505050505050505050565b61192b6040805160e081019091525f808252602082019081526020015f81526020015f81526020015f81526020015f81526020015f81525090565b6040805160e08101909152600980548252600a54602083019060ff16600381111561195857611958612330565b600381111561196957611969612330565b815260200160028201548152602001600382015481526020016004820154815260200160058201548152602001600682015481525050905090565b5f600a5460ff1660038111156119bc576119bc612330565b146119ff5760405162461bcd60e51b81526020600482015260136024820152722737ba1034b7103932b3b4b9ba3930ba34b7b760691b604482015260640161061f565b6008545f90815260036020908152604080832033845290915290206002015460ff16611a6d5760405162461bcd60e51b815260206004820152601c60248201527f4d757374207375626d697420737472617465677920746f20766f746500000000604482015260640161061f565b6008545f908152600660209081526040808320338452600181019092529091205460ff1615611ade5760405162461bcd60e51b815260206004820152600d60248201527f416c726561647920766f74656400000000000000000000000000000000000000604482015260640161061f565b335f908152600182810160205260408220805460ff191690911790558154908290611b08836129bd565b9091555050600854815460028301546040513393927f0271f53eebbe20450d9578f28ec279231556c34545b30e2278d754ffd39cd63c92611b5192918252602082015260400190565b60405180910390a36002810154815410611b6d57611b6d611d7a565b50565b6008545f9081526003602090815260408083206001600160a01b038516845290915281208054606092839283928067ffffffffffffffff811115611bb657611bb661282c565b604051908082528060200260200182016040528015611bdf578160200160208202803683370190505b5095508067ffffffffffffffff811115611bfb57611bfb61282c565b604051908082528060200260200182016040528015611c24578160200160208202803683370190505b5094508067ffffffffffffffff811115611c4057611c4061282c565b604051908082528060200260200182016040528015611c69578160200160208202803683370190505b5093505f5b81811015611d65575f835f018281548110611c8b57611c8b612840565b5f91825260209091206003909102018054895191925060ff1690899084908110611cb757611cb7612840565b60200260200101906005811115611cd057611cd0612330565b90816005811115611ce357611ce3612330565b81525050805f0160019054906101000a900460ff16878381518110611d0a57611d0a612840565b60200260200101906004811115611d2357611d23612330565b90816004811115611d3657611d36612330565b815250508060010154868381518110611d5157611d51612840565b602090810291909101015250600101611c6e565b5050600201549395929450909260ff16919050565b5f600a5460ff166003811115611d9257611d92612330565b14611ddf5760405162461bcd60e51b815260206004820152600e60248201527f496e76616c696420737461747573000000000000000000000000000000000000604482015260640161061f565b600c5460021115611e325760405162461bcd60e51b815260206004820152601760248201527f4e656564206174206c65617374203220706c6179657273000000000000000000604482015260640161061f565b600a805460ff1916600190811790915542600b55600c5490600290611e579083612a9e565b611e6190836129d5565b611e6b91906129ec565b600d55600854600c546040519081527fbc7efbd054762c7024dd5838b4eef6be3c9982e8a7397e2b3949e1b52263a61c90602001611302565b6001826005811115611eb857611eb8612330565b1480611ed557506002826005811115611ed357611ed3612330565b145b15611f64575f816004811115611eed57611eed612330565b1480611f0a57506001816004811115611f0857611f08612330565b145b611f605760405162461bcd60e51b815260206004820152602160248201527f496e76616c6964206f70657261746f7220666f72206d6f7665207375626a65636044820152601d60fa1b606482015260840161061f565b5050565b6004816004811115611f7857611f78612330565b1480611f9557506002816004811115611f9357611f93612330565b145b80611fb157506003816004811115611faf57611faf612330565b145b611f605760405162461bcd60e51b8152602060048201526024808201527f496e76616c6964206f70657261746f7220666f72206e756d65726963207375626044820152631a9958dd60e21b606482015260840161061f565b5f818152600760205260408120905b60018201548110156120a55781600101818154811061203957612039612840565b5f918252602090912001546002830180546001600160a01b03909216916108fc91908490811061206b5761206b612840565b905f5260205f20015490811502906040515f60405180830381858888f1935050505015801561209c573d5f5f3e3d5ffd5b50600101612018565b50600a8054600360ff19918216811783555f858152600460205260409020600980548255935460018281018054939560ff9093169490939092169184908111156120f1576120f1612330565b02179055506002828101549082015560038083015490820155600480830154908201556005808301549082015560069182015491015560405182907fe3416bedc8b1254602d8c58495d878a5c5b3ca4aaf8b5ac27f682b30036ed3ef905f90a260088054600101908190556040805160e0810182528281525f602082018190528183018190526060820181905260808201819052603260a0830181905260c09092018190526009849055600a805460ff19169055600b819055600c819055600d819055600e91909155600f8190559051611f6092917f113d32d0b7aec15a8c7f50af4cb42f4695e5b95524ed69519ac88d6c1f1f40f691a2565b5080545f8255600302905f5260205f2090810190611b6d91906122a3565b828054828255905f5260205f2090810192821561225a579160200282015b8281111561225a5781546001600160a01b0319166001600160a01b03843516178255602090920191600190910190612227565b506122669291506122ca565b5090565b828054828255905f5260205f2090810192821561225a579160200282015b8281111561225a578235825591602001919060010190612288565b5b8082111561226657805461ffff191681555f6001820181905560028201556003016122a4565b5b80821115612266575f81556001016122cb565b80356001600160a01b03811681146122f4575f5ffd5b919050565b5f60208284031215612309575f5ffd5b612312826122de565b9392505050565b5f60208284031215612329575f5ffd5b5035919050565b634e487b7160e01b5f52602160045260245ffd5b6004811061235457612354612330565b9052565b8151815260208083015160e083019161237390840182612344565b5060408301516040830152606083015160608301526080830151608083015260a083015160a083015260c083015160c083015292915050565b5f8151808452602084019350602083015f5b828110156123e55781516001600160a01b03168652602095860195909101906001016123be565b5093949350505050565b602081525f61231260208301846123ac565b87815260e081016124156020830189612344565b60408201969096526060810194909452608084019290925260a083015260c09091015292915050565b5f8151808452602084019350602083015f5b828110156123e5578151865260209586019590910190600101612450565b5f8151808452602084019350602083015f5b828110156123e55781516006811061249a5761249a612330565b86526020958601959190910190600101612480565b5f8151808452602084019350602083015f5b828110156123e5578151600581106124db576124db612330565b865260209586019591909101906001016124c1565b60a081525f61250260a083018861243e565b866020840152828103604084015261251a818761246e565b9050828103606084015261252e81866124af565b90508281036080840152612542818561243e565b98975050505050505050565b5f5f6040838503121561255f575f5ffd5b8235915061256f602084016122de565b90509250929050565b5f5f83601f840112612588575f5ffd5b50813567ffffffffffffffff81111561259f575f5ffd5b6020830191508360208260051b85010111156125b9575f5ffd5b9250929050565b5f5f5f5f5f5f5f5f6080898b0312156125d7575f5ffd5b883567ffffffffffffffff8111156125ed575f5ffd5b8901601f81018b136125fd575f5ffd5b803567ffffffffffffffff811115612613575f5ffd5b8b6020828401011115612624575f5ffd5b60209182019950975089013567ffffffffffffffff811115612644575f5ffd5b6126508b828c01612578565b909750955050604089013567ffffffffffffffff81111561266f575f5ffd5b61267b8b828c01612578565b909550935050606089013567ffffffffffffffff81111561269a575f5ffd5b6126a68b828c01612578565b999c989b5096995094979396929594505050565b604081525f6126cc60408301856123ac565b82810360208401526126de818561243e565b95945050505050565b5f5f604083850312156126f8575f5ffd5b50508035926020909101359150565b5f5f5f5f5f5f5f5f5f60a08a8c03121561271f575f5ffd5b8935985060208a013567ffffffffffffffff81111561273c575f5ffd5b6127488c828d01612578565b90995097505060408a013567ffffffffffffffff811115612767575f5ffd5b6127738c828d01612578565b90975095505060608a013567ffffffffffffffff811115612792575f5ffd5b61279e8c828d01612578565b90955093505060808a013567ffffffffffffffff8111156127bd575f5ffd5b6127c98c828d01612578565b915080935050809150509295985092959850929598565b608081525f6127f2608083018761246e565b828103602084015261280481876124af565b90508281036040840152612818818661243e565b915050821515606083015295945050505050565b634e487b7160e01b5f52604160045260245ffd5b634e487b7160e01b5f52603260045260245ffd5b6001600160a01b038416815260406020820152816040820152818360608301375f818301606090810191909152601f909201601f1916010192915050565b5f602082840312156128a2575f5ffd5b815167ffffffffffffffff8111156128b8575f5ffd5b8201601f810184136128c8575f5ffd5b805167ffffffffffffffff8111156128e2576128e261282c565b8060051b604051601f19603f830116810181811067ffffffffffffffff8211171561290f5761290f61282c565b60405291825260208184018101929081018784111561292c575f5ffd5b6020850194505b8385101561294f57845180825260209586019590935001612933565b509695505050505050565b634e487b7160e01b5f52601160045260245ffd5b80820180821115610c1d57610c1d61295a565b5f60208284031215612991575f5ffd5b813560068110612312575f5ffd5b5f602082840312156129af575f5ffd5b813560058110612312575f5ffd5b5f600182016129ce576129ce61295a565b5060010190565b8082028115828204841417610c1d57610c1d61295a565b5f82612a0657634e487b7160e01b5f52601260045260245ffd5b500490565b604080825281018490525f8560608301825b87811015612a4b576001600160a01b03612a36846122de565b16825260209283019290910190600101612a1d565b5083810360208501528481527f07ffffffffffffffffffffffffffffffffffffffffffffffffffffffffffffff851115612a83575f5ffd5b8460051b915081866020830137016020019695505050505050565b81810381811115610c1d57610c1d61295a56fea164736f6c634300081b000a",
  "linkReferences": {},
  "deployedLinkReferences": {}
}