{
  "_format": "hh-sol-artifact-1",
  "contractName": "PrisonersDilemma",
  "sourceName": "contracts/PrisonersDilemma.sol",
  "abi": [
    {
      "inputs": [],
      "stateMutability": "nonpayable",
      "type": "constructor"
    },
    {
      "inputs": [],
      "name": "ZamaProtocolUnsupported",
      "type": "error"
    },
    {
      "anonymous": false,
      "inputs": [
        {
          "indexed": true,
          "internalType": "address",
          "name": "oracle",
          "type": "address"
        }
      ],
      "name": "ComputationOracleSet",
      "type": "event"
    },
    {
      "anonymous": false,
      "inputs": [
        {
          "indexed": true,
          "internalType": "uint256",
          "name": "tournamentId",
          "type": "uint256"
        },
        {
          "indexed": true,
          "internalType": "address",
          "name": "winner",
          "type": "address"
        },
        {
          "indexed": false,
          "internalType": "uint256",
          "name": "amount",
          "type": "uint256"
        }
      ],
      "name": "PrizeClaimed",
      "type": "event"
    },
    {
      "anonymous": false,
      "inputs": [
        {
          "indexed": true,
          "internalType": "uint256",
          "name": "tournamentId",
          "type": "uint256"
        },
        {
          "indexed": false,
          "internalType": "address[]",
          "name": "winners",
          "type": "address[]"
        },
        {
          "indexed": false,
          "internalType": "uint256[]",
          "name": "prizes",
          "type": "uint256[]"
        }
      ],
      "name": "ResultsPublished",
      "type": "event"
    },
    {
      "anonymous": false,
      "inputs": [
        {
          "indexed": true,
          "internalType": "address",
          "name": "player",
          "type": "address"
        },
        {
          "indexed": false,
          "internalType": "uint256",
          "name": "tournamentId",
          "type": "uint256"
        }
      ],
      "name": "StrategySubmitted",
      "type": "event"
    },
    {
      "anonymous": false,
      "inputs": [
        {
          "indexed": true,
          "internalType": "uint256",
          "name": "tournamentId",
          "type": "uint256"
        }
      ],
      "name": "TournamentCreated",
      "type": "event"
    },
    {
      "anonymous": false,
      "inputs": [
        {
          "indexed": true,
          "internalType": "uint256",
          "name": "tournamentId",
          "type": "uint256"
        }
      ],
      "name": "TournamentFinished",
      "type": "event"
    },
    {
      "anonymous": false,
      "inputs": [
        {
          "indexed": true,
          "internalType": "uint256",
          "name": "tournamentId",
          "type": "uint256"
        },
        {
          "indexed": false,
          "internalType": "uint256",
          "name": "rounds",
          "type": "uint256"
        }
      ],
      "name": "TournamentRoundsSet",
      "type": "event"
    },
    {
      "anonymous": false,
      "inputs": [
        {
          "indexed": true,
          "internalType": "uint256",
          "name": "tournamentId",
          "type": "uint256"
        },
        {
          "indexed": false,
          "internalType": "uint256",
          "name": "playerCount",
          "type": "uint256"
        }
      ],
      "name": "TournamentStarted",
      "type": "event"
    },
    {
      "anonymous": false,
      "inputs": [
        {
          "indexed": true,
          "internalType": "uint256",
          "name": "tournamentId",
          "type": "uint256"
        },
        {
          "indexed": true,
          "internalType": "address",
          "name": "voter",
          "type": "address"
        },
        {
          "indexed": false,
          "internalType": "uint256",
          "name": "currentVotes",
          "type": "uint256"
        },
        {
          "indexed": false,
          "internalType": "uint256",
          "name": "requiredVotes",
          "type": "uint256"
        }
      ],
      "name": "VoteCast",
      "type": "event"
    },
    {
      "inputs": [],
      "name": "DEFAULT_ROUNDS",
      "outputs": [
        {
          "internalType": "uint256",
          "name": "",
          "type": "uint256"
        }
      ],
      "stateMutability": "view",
      "type": "function"
    },
    {
      "inputs": [],
      "name": "ENTRY_FEE",
      "outputs": [
        {
          "internalType": "uint256",
          "name": "",
          "type": "uint256"
        }
      ],
      "stateMutability": "view",
      "type": "function"
    },
    {
      "inputs": [],
      "name": "MAX_ROUNDS",
      "outputs": [
        {
          "internalType": "uint256",
          "name": "",
          "type": "uint256"
        }
      ],
      "stateMutability": "view",
      "type": "function"
    },
    {
      "inputs": [],
      "name": "MAX_RULES",
      "outputs": [
        {
          "internalType": "uint256",
          "name": "",
          "type": "uint256"
        }
      ],
      "stateMutability": "view",
      "type": "function"
    },
    {
      "inputs": [],
      "name": "MIN_ROUNDS",
      "outputs": [
        {
          "internalType": "uint256",
          "name": "",
          "type": "uint256"
        }
      ],
      "stateMutability": "view",
      "type": "function"
    },
    {
      "inputs": [],
      "name": "VOTE_QUORUM",
      "outputs": [
        {
          "internalType": "uint256",
          "name": "",
          "type": "uint256"
        }
      ],
      "stateMutability": "view",
      "type": "function"
    },
    {
      "inputs": [],
      "name": "WINNER_PERCENTAGE",
      "outputs": [
        {
          "internalType": "uint256",
          "name": "",
          "type": "uint256"
        }
      ],
      "stateMutability": "view",
      "type": "function"
    },
    {
      "inputs": [
        {
          "internalType": "uint256",
          "name": "tournamentId",
          "type": "uint256"
        }
      ],
      "name": "claimPrize",
      "outputs": [],
      "stateMutability": "nonpayable",
      "type": "function"
    },
    {
      "inputs": [
        {
          "internalType": "uint256",
          "name": "",
          "type": "uint256"
        },
        {
          "internalType": "address",
          "name": "",
          "type": "address"
        }
      ],
      "name": "claimablePrizes",
      "outputs": [
        {
          "internalType": "uint256",
          "name": "",
          "type": "uint256"
        }
      ],
      "stateMutability": "view",
      "type": "function"
    },
    {
      "inputs": [],
      "name": "computationOracle",
      "outputs": [
        {
          "internalType": "address",
          "name": "",
          "type": "address"
        }
      ],
      "stateMutability": "view",
      "type": "function"
    },
    {
      "inputs": [],
      "name": "confidentialProtocolId",
      "outputs": [
        {
          "internalType": "uint256",
          "name": "",
          "type": "uint256"
        }
      ],
      "stateMutability": "view",
      "type": "function"
    },
    {
      "inputs": [],
      "name": "currentTournament",
      "outputs": [
        {
          "internalType": "uint256",
          "name": "tournamentId",
          "type": "uint256"
        },
        {
          "internalType": "enum PrisonersDilemma.TournamentStatus",
          "name": "status",
          "type": "uint8"
        },
        {
          "internalType": "uint256",
          "name": "startTime",
          "type": "uint256"
        },
        {
          "internalType": "uint256",
          "name": "playerCount",
          "type": "uint256"
        },
        {
          "internalType": "uint256",
          "name": "totalGames",
          "type": "uint256"
        },
        {
          "internalType": "uint256",
          "name": "rounds",
          "type": "uint256"
        },
        {
          "internalType": "uint256",
          "name": "prizePool",
          "type": "uint256"
        }
      ],
      "stateMutability": "view",
      "type": "function"
    },
    {
      "inputs": [],
      "name": "currentTournamentId",
      "outputs": [
        {
          "internalType": "uint256",
          "name": "",
          "type": "uint256"
        }
      ],
      "stateMutability": "view",
      "type": "function"
    },
    {
      "inputs": [],
      "name": "forceStartTournament",
      "outputs": [],
      "stateMutability": "nonpayable",
      "type": "function"
    },
    {
      "inputs": [
        {
          "internalType": "uint256",
          "name": "tournamentId",
          "type": "uint256"
        },
        {
          "internalType": "address",
          "name": "player",
          "type": "address"
        }
      ],
      "name": "getClaimablePrize",
      "outputs": [
        {
          "internalType": "uint256",
          "name": "amount",
          "type": "uint256"
        },
        {
          "internalType": "bool",
          "name": "claimed",
          "type": "bool"
        }
      ],
      "stateMutability": "view",
      "type": "function"
    },
    {
      "inputs": [
        {
          "internalType": "address",
          "name": "player",
          "type": "address"
        }
      ],
      "name": "getEncryptedActionsHandle",
      "outputs": [
        {
          "internalType": "bytes32",
          "name": "",
          "type": "bytes32"
        }
      ],
      "stateMutability": "view",
      "type": "function"
    },
    {
      "inputs": [
        {
          "internalType": "address",
          "name": "player",
          "type": "address"
        }
      ],
      "name": "getEncryptedStrategyForComputation",
      "outputs": [
        {
          "internalType": "bytes32",
          "name": "encryptedActionsHandle",
          "type": "bytes32"
        },
        {
          "internalType": "enum PrisonersDilemma.ConditionSubject[]",
          "name": "subjects",
          "type": "uint8[]"
        },
        {
          "internalType": "enum PrisonersDilemma.ConditionOperator[]",
          "name": "operators",
          "type": "uint8[]"
        },
        {
          "internalType": "uint256[]",
          "name": "values",
          "type": "uint256[]"
        }
      ],
      "stateMutability": "view",
      "type": "function"
    },
    {
      "inputs": [],
      "name": "getLastFinishedTournamentId",
      "outputs": [
        {
          "internalType": "uint256",
          "name": "",
          "type": "uint256"
        }
      ],
      "stateMutability": "view",
      "type": "function"
    },
    {
      "inputs": [
        {
          "internalType": "uint256",
          "name": "tournamentId",
          "type": "uint256"
        },
        {
          "internalType": "address",
          "name": "player",
          "type": "address"
        }
      ],
      "name": "getPlayerScore",
      "outputs": [
        {
          "internalType": "uint256",
          "name": "",
          "type": "uint256"
        }
      ],
      "stateMutability": "view",
      "type": "function"
    },
    {
      "inputs": [
        {
          "internalType": "address",
          "name": "player",
          "type": "address"
        }
      ],
      "name": "getStrategy",
      "outputs": [
        {
          "internalType": "enum PrisonersDilemma.ConditionSubject[]",
          "name": "subjects",
          "type": "uint8[]"
        },
        {
          "internalType": "enum PrisonersDilemma.ConditionOperator[]",
          "name": "operators",
          "type": "uint8[]"
        },
        {
          "internalType": "uint256[]",
          "name": "values",
          "type": "uint256[]"
        },
        {
          "internalType": "bool",
          "name": "isSubmitted",
          "type": "bool"
        }
      ],
      "stateMutability": "view",
      "type": "function"
    },
    {
      "inputs": [
        {
          "internalType": "uint256",
          "name": "tournamentId",
          "type": "uint256"
        }
      ],
      "name": "getTournament",
      "outputs": [
        {
          "components": [
            {
              "internalType": "uint256",
              "name": "tournamentId",
              "type": "uint256"
            },
            {
              "internalType": "enum PrisonersDilemma.TournamentStatus",
              "name": "status",
              "type": "uint8"
            },
            {
              "internalType": "uint256",
              "name": "startTime",
              "type": "uint256"
            },
            {
              "internalType": "uint256",
              "name": "playerCount",
              "type": "uint256"
            },
            {
              "internalType": "uint256",
              "name": "totalGames",
              "type": "uint256"
            },
            {
              "internalType": "uint256",
              "name": "rounds",
              "type": "uint256"
            },
            {
              "internalType": "uint256",
              "name": "prizePool",
              "type": "uint256"
            }
          ],
          "internalType": "struct PrisonersDilemma.TournamentInfo",
          "name": "",
          "type": "tuple"
        }
      ],
      "stateMutability": "view",
      "type": "function"
    },
    {
      "inputs": [],
      "name": "getTournamentInfo",
      "outputs": [
        {
          "components": [
            {
              "internalType": "uint256",
              "name": "tournamentId",
              "type": "uint256"
            },
            {
              "internalType": "enum PrisonersDilemma.TournamentStatus",
              "name": "status",
              "type": "uint8"
            },
            {
              "internalType": "uint256",
              "name": "startTime",
              "type": "uint256"
            },
            {
              "internalType": "uint256",
              "name": "playerCount",
              "type": "uint256"
            },
            {
              "internalType": "uint256",
              "name": "totalGames",
              "type": "uint256"
            },
            {
              "internalType": "uint256",
              "name": "rounds",
              "type": "uint256"
            },
            {
              "internalType": "uint256",
              "name": "prizePool",
              "type": "uint256"
            }
          ],
          "internalType": "struct PrisonersDilemma.TournamentInfo",
          "name": "",
          "type": "tuple"
        }
      ],
      "stateMutability": "view",
      "type": "function"
    },
    {
      "inputs": [
        {
          "internalType": "uint256",
          "name": "tournamentId",
          "type": "uint256"
        }
      ],
      "name": "getTournamentPlayers",
      "outputs": [
        {
          "internalType": "address[]",
          "name": "",
          "type": "address[]"
        }
      ],
      "stateMutability": "view",
      "type": "function"
    },
    {
      "inputs": [
        {
          "internalType": "uint256",
          "name": "tournamentId",
          "type": "uint256"
        }
      ],
      "name": "getTournamentWinners",
      "outputs": [
        {
          "internalType": "address[]",
          "name": "",
          "type": "address[]"
        },
        {
          "internalType": "uint256[]",
          "name": "",
          "type": "uint256[]"
        }
      ],
      "stateMutability": "view",
      "type": "function"
    },
    {
      "inputs": [
        {
          "internalType": "uint256",
          "name": "tournamentId",
          "type": "uint256"
        }
      ],
      "name": "getVoteInfo",
      "outputs": [
        {
          "internalType": "uint256",
          "name": "voteCount",
          "type": "uint256"
        },
        {
          "internalType": "uint256",
          "name": "requiredVotes",
          "type": "uint256"
        }
      ],
      "stateMutability": "view",
      "type": "function"
    },
    {
      "inputs": [
        {
          "internalType": "uint256",
          "name": "",
          "type": "uint256"
        },
        {
          "internalType": "address",
          "name": "",
          "type": "address"
        }
      ],
      "name": "hasClaimed",
      "outputs": [
        {
          "internalType": "bool",
          "name": "",
          "type": "bool"
        }
      ],
      "stateMutability": "view",
      "type": "function"
    },
    {
      "inputs": [
        {
          "internalType": "uint256",
          "name": "tournamentId",
          "type": "uint256"
        },
        {
          "internalType": "address",
          "name": "player",
          "type": "address"
        }
      ],
      "name": "hasVoted",
      "outputs": [
        {
          "internalType": "bool",
          "name": "",
          "type": "bool"
        }
      ],
      "stateMutability": "view",
      "type": "function"
    },
    {
      "inputs": [
        {
          "internalType": "uint256",
          "name": "tournamentId",
          "type": "uint256"
        }
      ],
      "name": "isResultsPublished",
      "outputs": [
        {
          "internalType": "bool",
          "name": "",
          "type": "bool"
        }
      ],
      "stateMutability": "view",
      "type": "function"
    },
    {
      "inputs": [],
      "name": "owner",
      "outputs": [
        {
          "internalType": "address",
          "name": "",
          "type": "address"
        }
      ],
      "stateMutability": "view",
      "type": "function"
    },
    {
      "inputs": [
        {
          "internalType": "uint256",
          "name": "tournamentId",
          "type": "uint256"
        },
        {
          "internalType": "address[]",
          "name": "players",
          "type": "address[]"
        },
        {
          "internalType": "uint256[]",
          "name": "scores",
          "type": "uint256[]"
        },
        {
          "internalType": "address[]",
          "name": "winners",
          "type": "address[]"
        },
        {
          "internalType": "uint256[]",
          "name": "prizes",
          "type": "uint256[]"
        }
      ],
      "name": "publishResults",
      "outputs": [],
      "stateMutability": "nonpayable",
      "type": "function"
    },
    {
      "inputs": [
        {
          "internalType": "address",
          "name": "oracle",
          "type": "address"
        }
      ],
      "name": "setComputationOracle",
      "outputs": [],
      "stateMutability": "nonpayable",
      "type": "function"
    },
    {
      "inputs": [
        {
          "internalType": "uint256",
          "name": "rounds",
          "type": "uint256"
        }
      ],
      "name": "setTournamentRounds",
      "outputs": [],
      "stateMutability": "nonpayable",
      "type": "function"
    },
    {
      "inputs": [
        {
          "internalType": "externalEuint128",
          "name": "encryptedActionsHandle",
          "type": "bytes32"
        },
        {
          "internalType": "bytes",
          "name": "inputProof",
          "type": "bytes"
        },
        {
          "internalType": "enum PrisonersDilemma.ConditionSubject[]",
          "name": "subjects",
          "type": "uint8[]"
        },
        {
          "internalType": "enum PrisonersDilemma.ConditionOperator[]",
          "name": "operators",
          "type": "uint8[]"
        },
        {
          "internalType": "uint256[]",
          "name": "values",
          "type": "uint256[]"
        }
      ],
      "name": "submitStrategy",
      "outputs": [],
      "stateMutability": "payable",
      "type": "function"
    },
    {
      "inputs": [
        {
          "internalType": "uint256",
          "name": "",
          "type": "uint256"
        },
        {
          "internalType": "uint256",
          "name": "",
          "type": "uint256"
        }
      ],
      "name": "tournamentPlayers",
      "outputs": [
        {
          "internalType": "address",
          "name": "",
          "type": "address"
        }
      ],
      "stateMutability": "view",
      "type": "function"
    },
    {
      "inputs": [
        {
          "internalType": "uint256",
          "name": "",
          "type": "uint256"
        }
      ],
      "name": "tournaments",
      "outputs": [
        {
          "internalType": "uint256",
          "name": "tournamentId",
          "type": "uint256"
        },
        {
          "internalType": "enum PrisonersDilemma.TournamentStatus",
          "name": "status",
          "type": "uint8"
        },
        {
          "internalType": "uint256",
          "name": "startTime",
          "type": "uint256"
        },
        {
          "internalType": "uint256",
          "name": "playerCount",
          "type": "uint256"
        },
        {
          "internalType": "uint256",
          "name": "totalGames",
          "type": "uint256"
        },
        {
          "internalType": "uint256",
          "name": "rounds",
          "type": "uint256"
        },
        {
          "internalType": "uint256",
          "name": "prizePool",
          "type": "uint256"
        }
      ],
      "stateMutability": "view",
      "type": "function"
    },
    {
      "inputs": [],
      "name": "voteStartTournament",
      "outputs": [],
      "stateMutability": "nonpayable",
      "type": "function"
    },
    {
      "stateMutability": "payable",
      "type": "receive"
    }
  ],
  "bytecode": "0x608060405234801561000f575f5ffd5b506100c461001b610149565b80517f9e7b61f58c47dc699ac88507c4f5bb9f121c03808c5676a8078fe583e464970080546001600160a01b03199081166001600160a01b039384161790915560208301517f9e7b61f58c47dc699ac88507c4f5bb9f121c03808c5676a8078fe583e46497018054831691841691909117905560408301517f9e7b61f58c47dc699ac88507c4f5bb9f121c03808c5676a8078fe583e46497028054909216921691909117905550565b5f8054336001600160a01b0319918216811783556001805490921617905560098190556040805160e081018252828152602081018390529081018290526060810182905260808101829052603260a0820181905260c0909101829052600a829055600b805460ff19169055600c829055600d829055600e829055600f556010556102b8565b604080516060810182525f8082526020820181905291810191909152466001036101a2575060408051606080820183525f8083526020808401829052928401819052835191820184528082529181018290529182015290565b4662aa36a703610221575060408051606080820183525f8083526020808401829052928401528251908101835273f0ffdc93b7e186bc2f8cb3daa75d86d1930a433d81527392c920834ec8941d2c77d188936e1f7a6f49c1279181019190915273be0e383937d564d7ff0bc3b46c51f0bf8d5c311a9181019190915290565b46617a690361029f575060408051606080820183525f808352602080840182905292840152825190810183527350157cffd6bbfa2dece204a89ec419c23ef5755d815273e3a9105a3a932253a70f126eb1e3b589c643dd249181019190915273be0e383937d564d7ff0bc3b46c51f0bf8d5c311a9181019190915290565b6040516373cac13b60e01b815260040160405180910390fd5b612f54806102c55f395ff3fe608060405260043610610246575f3560e01c80639ec296f211610131578063d7098154116100ac578063ef135ed61161007c578063f7e13a4411610062578063f7e13a44146106ff578063f8806a1314610713578063fc8e750414610742575f5ffd5b8063ef135ed6146106b1578063f6d361cc146106e5575f5ffd5b8063d709815414610656578063d829055e14610675578063dae73b9814610689578063e86ba67a1461069d575f5ffd5b8063c617b26a11610101578063cc45b655116100e7578063cc45b655146105e7578063d0ec6eb114610606578063d1872bd414610625575f5ffd5b8063c617b26a146105c8578063c7761fab146102b9575f5ffd5b80639ec296f214610483578063a44ef7f314610569578063b0ee969014610596578063b8850023146105b5575f5ffd5b806372b4679d116101c1578063873f6f9e116101915780638d824273116101775780638d824273146104e45780638da5cb5b1461052c5780639135e50b1461054a575f5ffd5b8063873f6f9e146104975780638927b030146104d0575f5ffd5b806372b4679d146103d35780637503e1b714610409578063797617a214610464578063843cbbc614610483575f5ffd5b80632f50d6dc11610216578063404e4520116101fc578063404e45201461037a57806341d355821461039057806343859632146103a4575f5ffd5b80632f50d6dc146103075780633155d2ee1461034b575f5ffd5b8063150eb5b8146102515780631a5bd7fc1461028d5780631a774e54146102b957806326f7519a146102db575f5ffd5b3661024d57005b5f5ffd5b34801561025c575f5ffd5b50600154610270906001600160a01b031681565b6040516001600160a01b0390911681526020015b60405180910390f35b348015610298575f5ffd5b506102ac6102a736600461289e565b610757565b60405161028491906128dd565b3480156102c4575f5ffd5b506102cd603281565b604051908152602001610284565b3480156102e6575f5ffd5b506102fa6102f536600461289e565b610853565b6040516102849190612974565b348015610312575f5ffd5b50600a54600b54600c54600d54600e54600f54601054610338969560ff16949392919087565b6040516102849796959493929190612986565b348015610356575f5ffd5b5061036a6103653660046129de565b6108bc565b6040516102849493929190612aa9565b348015610385575f5ffd5b5061038e610bb0565b005b34801561039b575f5ffd5b506102cd60c881565b3480156103af575f5ffd5b506103c36103be366004612af2565b610c00565b6040519015158152602001610284565b3480156103de575f5ffd5b506102cd6103ed366004612af2565b600760209081525f928352604080842090915290825290205481565b348015610414575f5ffd5b5061033861042336600461289e565b600360208190525f91825260409091208054600182015460028301549383015460048401546005850154600690950154939560ff9093169492939192909187565b34801561046f575f5ffd5b5061038e61047e36600461289e565b610c2f565b34801561048e575f5ffd5b506102cd600a81565b3480156104a2575f5ffd5b506103c36104b1366004612af2565b600860209081525f928352604080842090915290825290205460ff1681565b3480156104db575f5ffd5b506102cd610d6d565b3480156104ef575f5ffd5b506105176104fe36600461289e565b5f90815260056020526040902080546002909101549091565b60408051928352602083019190915201610284565b348015610537575f5ffd5b505f54610270906001600160a01b031681565b348015610555575f5ffd5b5061038e6105643660046129de565b610d7b565b348015610574575f5ffd5b5061058861058336600461289e565b610e6d565b604051610284929190612b1c565b3480156105a1575f5ffd5b506102706105b0366004612b49565b610f9b565b61038e6105c3366004612be8565b610fcf565b3480156105d3575f5ffd5b506102cd6105e2366004612af2565b6114d1565b3480156105f2575f5ffd5b506102cd6106013660046129de565b611559565b348015610611575f5ffd5b5061038e610620366004612cc1565b611660565b348015610630575f5ffd5b506103c361063f36600461289e565b5f9081526006602052604090206003015460ff1690565b348015610661575f5ffd5b5061038e61067036600461289e565b611974565b348015610680575f5ffd5b506102ac611b92565b348015610694575f5ffd5b5061038e611c46565b3480156106a8575f5ffd5b506102cd601e81565b3480156106bc575f5ffd5b506106d06106cb366004612af2565b611e11565b60408051928352901515602083015201610284565b3480156106f0575f5ffd5b506102cd662386f26fc1000081565b34801561070a575f5ffd5b506102cd611e53565b34801561071e575f5ffd5b5061073261072d3660046129de565b611f34565b6040516102849493929190612d02565b34801561074d575f5ffd5b506102cd60095481565b6107926040805160e081019091525f808252602082019081526020015f81526020015f81526020015f81526020015f81526020015f81525090565b6009548203610815576040805160e08101909152600a80548252600b54602083019060ff1660038111156107c8576107c86128b5565b60038111156107d9576107d96128b5565b81526002820154602082015260038201546040820152600482015460608201526005820154608082015260069091015460a09091015292915050565b5f82815260036020818152604092839020835160e0810190945280548452600181015490929184019160ff909116908111156107c8576107c86128b5565b5f818152600460209081526040918290208054835181840281018401909452808452606093928301828280156108b057602002820191905f5260205f20905b81546001600160a01b03168152600190910190602001808311610892575b50505050509050919050565b6001545f90606090819081906001600160a01b03163314806108e757505f546001600160a01b031633145b6109265760405162461bcd60e51b815260206004820152600b60248201526a4f6e6c79206f7261636c6560a81b60448201526064015b60405180910390fd5b6009545f9081526002602081815260408084206001600160a01b038a1685529091529091209081015460ff1661099e5760405162461bcd60e51b815260206004820152601560248201527f4e6f207374726174656779207375626d69747465640000000000000000000000604482015260640161091d565b80548067ffffffffffffffff8111156109b9576109b9612d4e565b6040519080825280602002602001820160405280156109e2578160200160208202803683370190505b5094508067ffffffffffffffff8111156109fe576109fe612d4e565b604051908082528060200260200182016040528015610a27578160200160208202803683370190505b5093508067ffffffffffffffff811115610a4357610a43612d4e565b604051908082528060200260200182016040528015610a6c578160200160208202803683370190505b5092505f5b81811015610ba057825f018181548110610a8d57610a8d612d62565b5f918252602090912060029091020154865160ff90911690879083908110610ab757610ab7612d62565b60200260200101906005811115610ad057610ad06128b5565b90816005811115610ae357610ae36128b5565b9052508254839082908110610afa57610afa612d62565b905f5260205f2090600202015f0160019054906101000a900460ff16858281518110610b2857610b28612d62565b60200260200101906004811115610b4157610b416128b5565b90816004811115610b5457610b546128b5565b9052508254839082908110610b6b57610b6b612d62565b905f5260205f20906002020160010154848281518110610b8d57610b8d612d62565b6020908102919091010152600101610a71565b5050600101549592945090925090565b5f546001600160a01b03163314610bf65760405162461bcd60e51b815260206004820152600a60248201526927b7363c9037bbb732b960b11b604482015260640161091d565b610bfe61213e565b565b5f8281526005602090815260408083206001600160a01b038516845260010190915290205460ff165b92915050565b5f546001600160a01b03163314610c755760405162461bcd60e51b815260206004820152600a60248201526927b7363c9037bbb732b960b11b604482015260640161091d565b5f600b5460ff166003811115610c8d57610c8d6128b5565b14610cd05760405162461bcd60e51b81526020600482015260136024820152722737ba1034b7103932b3b4b9ba3930ba34b7b760691b604482015260640161091d565b600a8110158015610ce2575060c88111155b610d2e5760405162461bcd60e51b815260206004820152600e60248201527f496e76616c696420726f756e6473000000000000000000000000000000000000604482015260640161091d565b600f8190556009546040518281527f9ca488ee3ab8666b1354449cfe3927640726b3ff1b87c8ffce772a7594034650906020015b60405180910390a250565b5f610d76612268565b905090565b5f546001600160a01b03163314610dc15760405162461bcd60e51b815260206004820152600a60248201526927b7363c9037bbb732b960b11b604482015260640161091d565b6001600160a01b038116610e175760405162461bcd60e51b815260206004820152600e60248201527f496e76616c6964206f7261636c65000000000000000000000000000000000000604482015260640161091d565b6001805473ffffffffffffffffffffffffffffffffffffffff19166001600160a01b0383169081179091556040517f2fd2b8fed5a6bb25ab7a2bdf98499d74ec6c0dd362012ceed5c90626dc3a8ac5905f90a250565b5f81815260066020526040902060030154606090819060ff16610ed25760405162461bcd60e51b815260206004820152601960248201527f526573756c7473206e6f74207075626c69736865642079657400000000000000604482015260640161091d565b5f838152600660209081526040918290206001810180548451818502810185019095528085529193909260028501928491830182828015610f3a57602002820191905f5260205f20905b81546001600160a01b03168152600190910190602001808311610f1c575b5050505050915080805480602002602001604051908101604052809291908181526020018280548015610f8a57602002820191905f5260205f20905b815481526020019060010190808311610f76575b505050505090509250925050915091565b6004602052815f5260405f208181548110610fb4575f80fd5b5f918252602090912001546001600160a01b03169150829050565b5f600b5460ff166003811115610fe757610fe76128b5565b1461102a5760405162461bcd60e51b81526020600482015260136024820152722737ba1034b7103932b3b4b9ba3930ba34b7b760691b604482015260640161091d565b662386f26fc100003410156110815760405162461bcd60e51b815260206004820152601660248201527f496e73756666696369656e7420656e7472792066656500000000000000000000604482015260640161091d565b848314801561108f57508281145b6110db5760405162461bcd60e51b815260206004820152601160248201527f4d69736d61746368656420617272617973000000000000000000000000000000604482015260640161091d565b600a85111561112c5760405162461bcd60e51b815260206004820152600e60248201527f546f6f206d616e792072756c6573000000000000000000000000000000000000604482015260640161091d565b6009545f908152600260208181526040808420338552909152909120015460ff161561119a5760405162461bcd60e51b815260206004820152601a60248201527f537472617465677920616c7265616479207375626d6974746564000000000000604482015260640161091d565b6009545f90815260026020908152604080832033845290915281206111be916127a9565b6009545f9081526002602081815260408084203385528252808420928301805460ff191660011790558051601f8c018390048302810183019091528a8152919291611225918d91908d908d90819084018382808284375f9201919091525061229792505050565b9050611230816122a4565b5061123b81336122b3565b506001546112539082906001600160a01b03166122b3565b50600182018190555f5b878110156113df576112bb89898381811061127a5761127a612d62565b905060200201602081019061128f9190612d76565b8888848181106112a1576112a1612d62565b90506020020160208101906112b69190612d94565b6122c5565b825f0160405180606001604052808b8b858181106112db576112db612d62565b90506020020160208101906112f09190612d76565b6005811115611301576113016128b5565b815260200189898581811061131857611318612d62565b905060200201602081019061132d9190612d94565b600481111561133e5761133e6128b5565b815260200187878581811061135557611355612d62565b602090810292909201359092528354600181810186555f958652919094208351600290950201805493949093909250839160ff199091169083600581111561139f5761139f6128b5565b021790555060208201518154829061ff0019166101008360048111156113c7576113c76128b5565b0217905550604091909101516001918201550161125d565b506009545f9081526004602090815260408220805460018101825590835290822001805473ffffffffffffffffffffffffffffffffffffffff191633179055600d80549161142c83612dc6565b919050555034600a6006015f8282546114459190612dde565b90915550506009545f908152600560205260409020600d5460649061146c90603290612df1565b6114769190612e08565b6002808301829055111561148b576002818101555b60095460405190815233907f7f996dafed49a846774861911b5a7125b3f1ade25d0e4cfb9143679dea83ff249060200160405180910390a2505050505050505050505050565b5f8281526006602052604081206003015460ff166115315760405162461bcd60e51b815260206004820152601960248201527f526573756c7473206e6f74207075626c69736865642079657400000000000000604482015260640161091d565b505f9182526006602090815260408084206001600160a01b0393909316845291905290205490565b5f336001600160a01b038316148061157b57506001546001600160a01b031633145b8061158f57505f546001600160a01b031633145b6115db5760405162461bcd60e51b815260206004820152600e60248201527f4e6f7420617574686f72697a6564000000000000000000000000000000000000604482015260640161091d565b6009545f9081526002602081815260408084206001600160a01b03871685529091529091209081015460ff166116535760405162461bcd60e51b815260206004820152601560248201527f4e6f207374726174656779207375626d69747465640000000000000000000000604482015260640161091d565b60018101545b9392505050565b6001546001600160a01b031633148061168257505f546001600160a01b031633145b6116bc5760405162461bcd60e51b815260206004820152600b60248201526a4f6e6c79206f7261636c6560a81b604482015260640161091d565b600954891461170d5760405162461bcd60e51b815260206004820152601260248201527f496e76616c696420746f75726e616d656e740000000000000000000000000000604482015260640161091d565b6001600b5460ff166003811115611726576117266128b5565b146117735760405162461bcd60e51b815260206004820152600b60248201527f4e6f742070656e64696e67000000000000000000000000000000000000000000604482015260640161091d565b8685146117c25760405162461bcd60e51b815260206004820152601160248201527f4d69736d61746368656420617272617973000000000000000000000000000000604482015260640161091d565b8281146118115760405162461bcd60e51b815260206004820152601160248201527f4d69736d617463686564207072697a6573000000000000000000000000000000604482015260640161091d565b5f898152600660205260409020600381015460ff16156118735760405162461bcd60e51b815260206004820152601160248201527f416c7265616479207075626c6973686564000000000000000000000000000000604482015260640161091d565b5f5b888110156118e25787878281811061188f5761188f612d62565b90506020020135825f015f8c8c858181106118ac576118ac612d62565b90506020020160208101906118c191906129de565b6001600160a01b0316815260208101919091526040015f2055600101611875565b506118f16001820186866127c7565b50611900600282018484612831565b5060038101805460ff19908116600117909155600b805490911660021790556040518a907f19e48af67fca3cde658dbcc800b2c2ac6bea36379321c5557c4b8ba0c166215090611957908890889088908890612e27565b60405180910390a26119688a61242a565b50505050505050505050565b5f8181526006602052604090206003015460ff166119d45760405162461bcd60e51b815260206004820152601560248201527f526573756c7473206e6f74207075626c69736865640000000000000000000000604482015260640161091d565b5f81815260086020908152604080832033845290915290205460ff1615611a3d5760405162461bcd60e51b815260206004820152600f60248201527f416c726561647920636c61696d65640000000000000000000000000000000000604482015260640161091d565b5f81815260076020908152604080832033845290915290205480611aa35760405162461bcd60e51b815260206004820152601160248201527f4e6f207072697a6520746f20636c61696d000000000000000000000000000000604482015260640161091d565b5f828152600860209081526040808320338085529252808320805460ff191660011790555183908381818185875af1925050503d805f8114611b00576040519150601f19603f3d011682016040523d82523d5f602084013e611b05565b606091505b5050905080611b565760405162461bcd60e51b815260206004820152600f60248201527f5472616e73666572206661696c65640000000000000000000000000000000000604482015260640161091d565b604051828152339084907f4aa95f981a8337cb337de335b965507da0879c3b49f799d20058e913f5ad2c269060200160405180910390a3505050565b611bcd6040805160e081019091525f808252602082019081526020015f81526020015f81526020015f81526020015f81526020015f81525090565b6040805160e08101909152600a80548252600b54602083019060ff166003811115611bfa57611bfa6128b5565b6003811115611c0b57611c0b6128b5565b815260200160028201548152602001600382015481526020016004820154815260200160058201548152602001600682015481525050905090565b5f600b5460ff166003811115611c5e57611c5e6128b5565b14611ca15760405162461bcd60e51b81526020600482015260136024820152722737ba1034b7103932b3b4b9ba3930ba34b7b760691b604482015260640161091d565b6009545f908152600260208181526040808420338552909152909120015460ff16611d0e5760405162461bcd60e51b815260206004820152601c60248201527f4d757374207375626d697420737472617465677920746f20766f746500000000604482015260640161091d565b6009545f908152600560209081526040808320338452600181019092529091205460ff1615611d7f5760405162461bcd60e51b815260206004820152600d60248201527f416c726561647920766f74656400000000000000000000000000000000000000604482015260640161091d565b335f908152600182810160205260408220805460ff191690911790558154908290611da983612dc6565b9091555050600954815460028301546040513393927f0271f53eebbe20450d9578f28ec279231556c34545b30e2278d754ffd39cd63c92611df292918252602082015260400190565b60405180910390a36002810154815410611e0e57611e0e61213e565b50565b5f8281526007602090815260408083206001600160a01b038516808552908352818420548685526008845282852091855292529091205460ff165b9250929050565b5f6009545f03611e6257505f90565b5f600b5460ff166003811115611e7a57611e7a6128b5565b148015611e8857505f600954115b15611ee8575f60035f6001600954611ea09190612eba565b815260208101919091526040015f2090506003600182015460ff166003811115611ecc57611ecc6128b5565b03611ee6576001600954611ee09190612eba565b91505090565b505b6003600b5460ff166003811115611f0157611f016128b5565b1480611f2357506002600b5460ff166003811115611f2157611f216128b5565b145b15611f2f575060095490565b505f90565b6009545f9081526002602090815260408083206001600160a01b038516845290915281208054606092839283928067ffffffffffffffff811115611f7a57611f7a612d4e565b604051908082528060200260200182016040528015611fa3578160200160208202803683370190505b5095508067ffffffffffffffff811115611fbf57611fbf612d4e565b604051908082528060200260200182016040528015611fe8578160200160208202803683370190505b5094508067ffffffffffffffff81111561200457612004612d4e565b60405190808252806020026020018201604052801561202d578160200160208202803683370190505b5093505f5b81811015612129575f835f01828154811061204f5761204f612d62565b5f91825260209091206002909102018054895191925060ff169089908490811061207b5761207b612d62565b60200260200101906005811115612094576120946128b5565b908160058111156120a7576120a76128b5565b81525050805f0160019054906101000a900460ff168783815181106120ce576120ce612d62565b602002602001019060048111156120e7576120e76128b5565b908160048111156120fa576120fa6128b5565b81525050806001015486838151811061211557612115612d62565b602090810291909101015250600101612032565b5050600201549395929450909260ff16919050565b5f600b5460ff166003811115612156576121566128b5565b146121a35760405162461bcd60e51b815260206004820152600e60248201527f496e76616c696420737461747573000000000000000000000000000000000000604482015260640161091d565b600d54600211156121f65760405162461bcd60e51b815260206004820152601760248201527f4e656564206174206c65617374203220706c6179657273000000000000000000604482015260640161091d565b600b805460ff1916600190811790915542600c55600d549060029061221b9083612eba565b6122259083612df1565b61222f9190612e08565b600e55600954600d546040519081527fbc7efbd054762c7024dd5838b4eef6be3c9982e8a7397e2b3949e1b52263a61c90602001610d62565b5f466001036122775750600190565b4662aa36a703612288575061271190565b46617a6903611f2f57505f1990565b5f6116598383600661256a565b5f6122af823061268a565b5090565b5f6122be838361268a565b5090919050565b60018260058111156122d9576122d96128b5565b14806122f6575060028260058111156122f4576122f46128b5565b145b15612385575f81600481111561230e5761230e6128b5565b148061232b57506001816004811115612329576123296128b5565b145b6123815760405162461bcd60e51b815260206004820152602160248201527f496e76616c6964206f70657261746f7220666f72206d6f7665207375626a65636044820152601d60fa1b606482015260840161091d565b5050565b6004816004811115612399576123996128b5565b14806123b6575060028160048111156123b4576123b46128b5565b145b806123d2575060038160048111156123d0576123d06128b5565b145b6123815760405162461bcd60e51b8152602060048201526024808201527f496e76616c6964206f70657261746f7220666f72206e756d65726963207375626044820152631a9958dd60e21b606482015260840161091d565b5f818152600660205260408120905b60018201548110156124b65781600201818154811061245a5761245a612d62565b905f5260205f20015460075f8581526020019081526020015f205f84600101848154811061248a5761248a612d62565b5f9182526020808320909101546001600160a01b03168352820192909252604001902055600101612439565b50600b8054600360ff19918216811783555f858152602082905260409020600a80548255935460018281018054939560ff909316949093909216918490811115612502576125026128b5565b02179055506002828101549082015560038083015490820155600480830154908201556005808301549082015560069182015491015560405182907fe3416bedc8b1254602d8c58495d878a5c5b3ca4aaf8b5ac27f682b30036ed3ef905f90a2612381612713565b7f9e7b61f58c47dc699ac88507c4f5bb9f121c03808c5676a8078fe583e46497015460405163045fc19560e11b81525f917f9e7b61f58c47dc699ac88507c4f5bb9f121c03808c5676a8078fe583e4649700916001600160a01b03909116906308bf832a906125e3908890339089908990600401612ecd565b6020604051808303815f875af11580156125ff573d5f5f3e3d5ffd5b505050506040513d601f19601f820116820180604052508101906126239190612f30565b8154604051630f8e573b60e21b8152600481018390523360248201529193506001600160a01b031690633e395cec906044015f604051808303815f87803b15801561266c575f5ffd5b505af115801561267e573d5f5f3e3d5ffd5b50505050509392505050565b5f7f9e7b61f58c47dc699ac88507c4f5bb9f121c03808c5676a8078fe583e46497008054604051635ca4b5b160e11b8152600481018690526001600160a01b03858116602483015292935091169063b9496b62906044015f604051808303815f87803b1580156126f8575f5ffd5b505af115801561270a573d5f5f3e3d5ffd5b50505050505050565b60098054600101908190556040805160e0810182528281525f602082018190528183018190526060820181905260808201819052603260a0830181905260c0909201819052600a849055600b805460ff19169055600c819055600d819055600e819055600f91909155601081905590517f113d32d0b7aec15a8c7f50af4cb42f4695e5b95524ed69519ac88d6c1f1f40f69190a2565b5080545f8255600202905f5260205f2090810190611e0e919061286a565b828054828255905f5260205f20908101928215612825579160200282015b8281111561282557815473ffffffffffffffffffffffffffffffffffffffff19166001600160a01b038435161782556020909201916001909101906127e5565b506122af92915061288a565b828054828255905f5260205f20908101928215612825579160200282015b8281111561282557823582559160200191906001019061284f565b5b808211156122af57805461ffff191681555f600182015560020161286b565b5b808211156122af575f815560010161288b565b5f602082840312156128ae575f5ffd5b5035919050565b634e487b7160e01b5f52602160045260245ffd5b600481106128d9576128d96128b5565b9052565b8151815260208083015160e08301916128f8908401826128c9565b5060408301516040830152606083015160608301526080830151608083015260a083015160a083015260c083015160c083015292915050565b5f8151808452602084019350602083015f5b8281101561296a5781516001600160a01b0316865260209586019590910190600101612943565b5093949350505050565b602081525f6116596020830184612931565b87815260e0810161299a60208301896128c9565b60408201969096526060810194909452608084019290925260a083015260c09091015292915050565b80356001600160a01b03811681146129d9575f5ffd5b919050565b5f602082840312156129ee575f5ffd5b611659826129c3565b5f8151808452602084019350602083015f5b8281101561296a57815160068110612a2357612a236128b5565b86526020958601959190910190600101612a09565b5f8151808452602084019350602083015f5b8281101561296a57815160058110612a6457612a646128b5565b86526020958601959190910190600101612a4a565b5f8151808452602084019350602083015f5b8281101561296a578151865260209586019590910190600101612a8b565b848152608060208201525f612ac160808301866129f7565b8281036040840152612ad38186612a38565b90508281036060840152612ae78185612a79565b979650505050505050565b5f5f60408385031215612b03575f5ffd5b82359150612b13602084016129c3565b90509250929050565b604081525f612b2e6040830185612931565b8281036020840152612b408185612a79565b95945050505050565b5f5f60408385031215612b5a575f5ffd5b50508035926020909101359150565b5f5f83601f840112612b79575f5ffd5b50813567ffffffffffffffff811115612b90575f5ffd5b602083019150836020828501011115611e4c575f5ffd5b5f5f83601f840112612bb7575f5ffd5b50813567ffffffffffffffff811115612bce575f5ffd5b6020830191508360208260051b8501011115611e4c575f5ffd5b5f5f5f5f5f5f5f5f5f60a08a8c031215612c00575f5ffd5b8935985060208a013567ffffffffffffffff811115612c1d575f5ffd5b612c298c828d01612b69565b90995097505060408a013567ffffffffffffffff811115612c48575f5ffd5b612c548c828d01612ba7565b90975095505060608a013567ffffffffffffffff811115612c73575f5ffd5b612c7f8c828d01612ba7565b90955093505060808a013567ffffffffffffffff811115612c9e575f5ffd5b612caa8c828d01612ba7565b915080935050809150509295985092959850929598565b5f5f5f5f5f5f5f5f5f60a08a8c031215612cd9575f5ffd5b8935985060208a013567ffffffffffffffff811115612cf6575f5ffd5b612c298c828d01612ba7565b608081525f612d1460808301876129f7565b8281036020840152612d268187612a38565b90508281036040840152612d3a8186612a79565b915050821515606083015295945050505050565b634e487b7160e01b5f52604160045260245ffd5b634e487b7160e01b5f52603260045260245ffd5b5f60208284031215612d86575f5ffd5b813560068110611659575f5ffd5b5f60208284031215612da4575f5ffd5b813560058110611659575f5ffd5b634e487b7160e01b5f52601160045260245ffd5b5f60018201612dd757612dd7612db2565b5060010190565b80820180821115610c2957610c29612db2565b8082028115828204841417610c2957610c29612db2565b5f82612e2257634e487b7160e01b5f52601260045260245ffd5b500490565b604080825281018490525f8560608301825b87811015612e67576001600160a01b03612e52846129c3565b16825260209283019290910190600101612e39565b5083810360208501528481527f07ffffffffffffffffffffffffffffffffffffffffffffffffffffffffffffff851115612e9f575f5ffd5b8460051b915081866020830137016020019695505050505050565b81810381811115610c2957610c29612db2565b8481526001600160a01b0384166020820152608060408201525f8351806080840152806020860160a085015e5f60a0828501015260a0601f19601f83011684010191505060548310612f2157612f216128b5565b82606083015295945050505050565b5f60208284031215612f40575f5ffd5b505191905056fea164736f6c634300081b000a",
  "linkReferences": {},
  "deployedLinkReferences": {}
}