{
  "_format": "hh-sol-artifact-1",
  "contractName": "PrisonersDilemma",
  "sourceName": "contracts/PrisonersDilemma.sol",
  "abi": [
    {
      "inputs": [],
      "stateMutability": "nonpayable",
      "type": "constructor"
    },
    {
      "anonymous": false,
      "inputs": [
        {
          "indexed": true,
          "internalType": "address",
          "name": "oracle",
          "type": "address"
        }
      ],
      "name": "ComputationOracleSet",
      "type": "event"
    },
    {
      "anonymous": false,
      "inputs": [
        {
          "indexed": true,
          "internalType": "uint256",
          "name": "tournamentId",
          "type": "uint256"
        },
        {
          "indexed": false,
          "internalType": "address[]",
          "name": "winners",
          "type": "address[]"
        },
        {
          "indexed": false,
          "internalType": "uint256[]",
          "name": "prizes",
          "type": "uint256[]"
        }
      ],
      "name": "ResultsPublished",
      "type": "event"
    },
    {
      "anonymous": false,
      "inputs": [
        {
          "indexed": true,
          "internalType": "address",
          "name": "player",
          "type": "address"
        },
        {
          "indexed": false,
          "internalType": "uint256",
          "name": "tournamentId",
          "type": "uint256"
        }
      ],
      "name": "StrategySubmitted",
      "type": "event"
    },
    {
      "anonymous": false,
      "inputs": [
        {
          "indexed": true,
          "internalType": "uint256",
          "name": "tournamentId",
          "type": "uint256"
        }
      ],
      "name": "TournamentCreated",
      "type": "event"
    },
    {
      "anonymous": false,
      "inputs": [
        {
          "indexed": true,
          "internalType": "uint256",
          "name": "tournamentId",
          "type": "uint256"
        }
      ],
      "name": "TournamentFinished",
      "type": "event"
    },
    {
      "anonymous": false,
      "inputs": [
        {
          "indexed": true,
          "internalType": "uint256",
          "name": "tournamentId",
          "type": "uint256"
        },
        {
          "indexed": false,
          "internalType": "uint256",
          "name": "rounds",
          "type": "uint256"
        }
      ],
      "name": "TournamentRoundsSet",
      "type": "event"
    },
    {
      "anonymous": false,
      "inputs": [
        {
          "indexed": true,
          "internalType": "uint256",
          "name": "tournamentId",
          "type": "uint256"
        },
        {
          "indexed": false,
          "internalType": "uint256",
          "name": "playerCount",
          "type": "uint256"
        }
      ],
      "name": "TournamentStarted",
      "type": "event"
    },
    {
      "anonymous": false,
      "inputs": [
        {
          "indexed": true,
          "internalType": "uint256",
          "name": "tournamentId",
          "type": "uint256"
        },
        {
          "indexed": true,
          "internalType": "address",
          "name": "voter",
          "type": "address"
        },
        {
          "indexed": false,
          "internalType": "uint256",
          "name": "currentVotes",
          "type": "uint256"
        },
        {
          "indexed": false,
          "internalType": "uint256",
          "name": "requiredVotes",
          "type": "uint256"
        }
      ],
      "name": "VoteCast",
      "type": "event"
    },
    {
      "inputs": [],
      "name": "DEFAULT_ROUNDS",
      "outputs": [
        {
          "internalType": "uint256",
          "name": "",
          "type": "uint256"
        }
      ],
      "stateMutability": "view",
      "type": "function"
    },
    {
      "inputs": [],
      "name": "ENTRY_FEE",
      "outputs": [
        {
          "internalType": "uint256",
          "name": "",
          "type": "uint256"
        }
      ],
      "stateMutability": "view",
      "type": "function"
    },
    {
      "inputs": [],
      "name": "MAX_ROUNDS",
      "outputs": [
        {
          "internalType": "uint256",
          "name": "",
          "type": "uint256"
        }
      ],
      "stateMutability": "view",
      "type": "function"
    },
    {
      "inputs": [],
      "name": "MAX_RULES",
      "outputs": [
        {
          "internalType": "uint256",
          "name": "",
          "type": "uint256"
        }
      ],
      "stateMutability": "view",
      "type": "function"
    },
    {
      "inputs": [],
      "name": "MIN_ROUNDS",
      "outputs": [
        {
          "internalType": "uint256",
          "name": "",
          "type": "uint256"
        }
      ],
      "stateMutability": "view",
      "type": "function"
    },
    {
      "inputs": [],
      "name": "VOTE_QUORUM",
      "outputs": [
        {
          "internalType": "uint256",
          "name": "",
          "type": "uint256"
        }
      ],
      "stateMutability": "view",
      "type": "function"
    },
    {
      "inputs": [],
      "name": "WINNER_PERCENTAGE",
      "outputs": [
        {
          "internalType": "uint256",
          "name": "",
          "type": "uint256"
        }
      ],
      "stateMutability": "view",
      "type": "function"
    },
    {
      "inputs": [],
      "name": "computationOracle",
      "outputs": [
        {
          "internalType": "address",
          "name": "",
          "type": "address"
        }
      ],
      "stateMutability": "view",
      "type": "function"
    },
    {
      "inputs": [],
      "name": "currentTournament",
      "outputs": [
        {
          "internalType": "uint256",
          "name": "tournamentId",
          "type": "uint256"
        },
        {
          "internalType": "enum PrisonersDilemma.TournamentStatus",
          "name": "status",
          "type": "uint8"
        },
        {
          "internalType": "uint256",
          "name": "startTime",
          "type": "uint256"
        },
        {
          "internalType": "uint256",
          "name": "playerCount",
          "type": "uint256"
        },
        {
          "internalType": "uint256",
          "name": "totalGames",
          "type": "uint256"
        },
        {
          "internalType": "uint256",
          "name": "rounds",
          "type": "uint256"
        },
        {
          "internalType": "uint256",
          "name": "prizePool",
          "type": "uint256"
        }
      ],
      "stateMutability": "view",
      "type": "function"
    },
    {
      "inputs": [],
      "name": "currentTournamentId",
      "outputs": [
        {
          "internalType": "uint256",
          "name": "",
          "type": "uint256"
        }
      ],
      "stateMutability": "view",
      "type": "function"
    },
    {
      "inputs": [],
      "name": "forceStartTournament",
      "outputs": [],
      "stateMutability": "nonpayable",
      "type": "function"
    },
    {
      "inputs": [
        {
          "internalType": "address",
          "name": "player",
          "type": "address"
        }
      ],
      "name": "getEncryptedStrategyForComputation",
      "outputs": [
        {
          "internalType": "euint8[]",
          "name": "encryptedActions",
          "type": "bytes32[]"
        },
        {
          "internalType": "euint8",
          "name": "encryptedDefaultAction",
          "type": "bytes32"
        },
        {
          "internalType": "enum PrisonersDilemma.ConditionSubject[]",
          "name": "subjects",
          "type": "uint8[]"
        },
        {
          "internalType": "enum PrisonersDilemma.ConditionOperator[]",
          "name": "operators",
          "type": "uint8[]"
        },
        {
          "internalType": "uint256[]",
          "name": "values",
          "type": "uint256[]"
        }
      ],
      "stateMutability": "view",
      "type": "function"
    },
    {
      "inputs": [
        {
          "internalType": "uint256",
          "name": "tournamentId",
          "type": "uint256"
        },
        {
          "internalType": "address",
          "name": "player",
          "type": "address"
        }
      ],
      "name": "getPlayerScore",
      "outputs": [
        {
          "internalType": "uint256",
          "name": "",
          "type": "uint256"
        }
      ],
      "stateMutability": "view",
      "type": "function"
    },
    {
      "inputs": [
        {
          "internalType": "address",
          "name": "player",
          "type": "address"
        }
      ],
      "name": "getStrategy",
      "outputs": [
        {
          "internalType": "enum PrisonersDilemma.ConditionSubject[]",
          "name": "subjects",
          "type": "uint8[]"
        },
        {
          "internalType": "enum PrisonersDilemma.ConditionOperator[]",
          "name": "operators",
          "type": "uint8[]"
        },
        {
          "internalType": "uint256[]",
          "name": "values",
          "type": "uint256[]"
        },
        {
          "internalType": "bool",
          "name": "isSubmitted",
          "type": "bool"
        }
      ],
      "stateMutability": "view",
      "type": "function"
    },
    {
      "inputs": [
        {
          "internalType": "uint256",
          "name": "tournamentId",
          "type": "uint256"
        }
      ],
      "name": "getTournament",
      "outputs": [
        {
          "components": [
            {
              "internalType": "uint256",
              "name": "tournamentId",
              "type": "uint256"
            },
            {
              "internalType": "enum PrisonersDilemma.TournamentStatus",
              "name": "status",
              "type": "uint8"
            },
            {
              "internalType": "uint256",
              "name": "startTime",
              "type": "uint256"
            },
            {
              "internalType": "uint256",
              "name": "playerCount",
              "type": "uint256"
            },
            {
              "internalType": "uint256",
              "name": "totalGames",
              "type": "uint256"
            },
            {
              "internalType": "uint256",
              "name": "rounds",
              "type": "uint256"
            },
            {
              "internalType": "uint256",
              "name": "prizePool",
              "type": "uint256"
            }
          ],
          "internalType": "struct PrisonersDilemma.TournamentInfo",
          "name": "",
          "type": "tuple"
        }
      ],
      "stateMutability": "view",
      "type": "function"
    },
    {
      "inputs": [],
      "name": "getTournamentInfo",
      "outputs": [
        {
          "components": [
            {
              "internalType": "uint256",
              "name": "tournamentId",
              "type": "uint256"
            },
            {
              "internalType": "enum PrisonersDilemma.TournamentStatus",
              "name": "status",
              "type": "uint8"
            },
            {
              "internalType": "uint256",
              "name": "startTime",
              "type": "uint256"
            },
            {
              "internalType": "uint256",
              "name": "playerCount",
              "type": "uint256"
            },
            {
              "internalType": "uint256",
              "name": "totalGames",
              "type": "uint256"
            },
            {
              "internalType": "uint256",
              "name": "rounds",
              "type": "uint256"
            },
            {
              "internalType": "uint256",
              "name": "prizePool",
              "type": "uint256"
            }
          ],
          "internalType": "struct PrisonersDilemma.TournamentInfo",
          "name": "",
          "type": "tuple"
        }
      ],
      "stateMutability": "view",
      "type": "function"
    },
    {
      "inputs": [
        {
          "internalType": "uint256",
          "name": "tournamentId",
          "type": "uint256"
        }
      ],
      "name": "getTournamentPlayers",
      "outputs": [
        {
          "internalType": "address[]",
          "name": "",
          "type": "address[]"
        }
      ],
      "stateMutability": "view",
      "type": "function"
    },
    {
      "inputs": [
        {
          "internalType": "uint256",
          "name": "tournamentId",
          "type": "uint256"
        }
      ],
      "name": "getTournamentWinners",
      "outputs": [
        {
          "internalType": "address[]",
          "name": "",
          "type": "address[]"
        },
        {
          "internalType": "uint256[]",
          "name": "",
          "type": "uint256[]"
        }
      ],
      "stateMutability": "view",
      "type": "function"
    },
    {
      "inputs": [
        {
          "internalType": "uint256",
          "name": "tournamentId",
          "type": "uint256"
        }
      ],
      "name": "getVoteInfo",
      "outputs": [
        {
          "internalType": "uint256",
          "name": "voteCount",
          "type": "uint256"
        },
        {
          "internalType": "uint256",
          "name": "requiredVotes",
          "type": "uint256"
        }
      ],
      "stateMutability": "view",
      "type": "function"
    },
    {
      "inputs": [
        {
          "internalType": "uint256",
          "name": "tournamentId",
          "type": "uint256"
        },
        {
          "internalType": "address",
          "name": "player",
          "type": "address"
        }
      ],
      "name": "hasVoted",
      "outputs": [
        {
          "internalType": "bool",
          "name": "",
          "type": "bool"
        }
      ],
      "stateMutability": "view",
      "type": "function"
    },
    {
      "inputs": [],
      "name": "owner",
      "outputs": [
        {
          "internalType": "address",
          "name": "",
          "type": "address"
        }
      ],
      "stateMutability": "view",
      "type": "function"
    },
    {
      "inputs": [
        {
          "internalType": "uint256",
          "name": "tournamentId",
          "type": "uint256"
        },
        {
          "internalType": "address[]",
          "name": "players",
          "type": "address[]"
        },
        {
          "internalType": "uint256[]",
          "name": "scores",
          "type": "uint256[]"
        },
        {
          "internalType": "address[]",
          "name": "winners",
          "type": "address[]"
        },
        {
          "internalType": "uint256[]",
          "name": "prizes",
          "type": "uint256[]"
        }
      ],
      "name": "publishResults",
      "outputs": [],
      "stateMutability": "nonpayable",
      "type": "function"
    },
    {
      "inputs": [
        {
          "internalType": "address",
          "name": "oracle",
          "type": "address"
        }
      ],
      "name": "setComputationOracle",
      "outputs": [],
      "stateMutability": "nonpayable",
      "type": "function"
    },
    {
      "inputs": [
        {
          "internalType": "uint256",
          "name": "rounds",
          "type": "uint256"
        }
      ],
      "name": "setTournamentRounds",
      "outputs": [],
      "stateMutability": "nonpayable",
      "type": "function"
    },
    {
      "inputs": [
        {
          "internalType": "uint8[]",
          "name": "actions",
          "type": "uint8[]"
        },
        {
          "internalType": "uint8",
          "name": "defaultAction",
          "type": "uint8"
        },
        {
          "internalType": "enum PrisonersDilemma.ConditionSubject[]",
          "name": "subjects",
          "type": "uint8[]"
        },
        {
          "internalType": "enum PrisonersDilemma.ConditionOperator[]",
          "name": "operators",
          "type": "uint8[]"
        },
        {
          "internalType": "uint256[]",
          "name": "values",
          "type": "uint256[]"
        }
      ],
      "name": "submitStrategy",
      "outputs": [],
      "stateMutability": "payable",
      "type": "function"
    },
    {
      "inputs": [
        {
          "internalType": "uint256",
          "name": "",
          "type": "uint256"
        },
        {
          "internalType": "uint256",
          "name": "",
          "type": "uint256"
        }
      ],
      "name": "tournamentPlayers",
      "outputs": [
        {
          "internalType": "address",
          "name": "",
          "type": "address"
        }
      ],
      "stateMutability": "view",
      "type": "function"
    },
    {
      "inputs": [
        {
          "internalType": "uint256",
          "name": "",
          "type": "uint256"
        }
      ],
      "name": "tournaments",
      "outputs": [
        {
          "internalType": "uint256",
          "name": "tournamentId",
          "type": "uint256"
        },
        {
          "internalType": "enum PrisonersDilemma.TournamentStatus",
          "name": "status",
          "type": "uint8"
        },
        {
          "internalType": "uint256",
          "name": "startTime",
          "type": "uint256"
        },
        {
          "internalType": "uint256",
          "name": "playerCount",
          "type": "uint256"
        },
        {
          "internalType": "uint256",
          "name": "totalGames",
          "type": "uint256"
        },
        {
          "internalType": "uint256",
          "name": "rounds",
          "type": "uint256"
        },
        {
          "internalType": "uint256",
          "name": "prizePool",
          "type": "uint256"
        }
      ],
      "stateMutability": "view",
      "type": "function"
    },
    {
      "inputs": [],
      "name": "voteStartTournament",
      "outputs": [],
      "stateMutability": "nonpayable",
      "type": "function"
    },
    {
      "stateMutability": "payable",
      "type": "receive"
    }
  ],
  "bytecode": "0x6080604052348015600e575f5ffd5b505f80546001600160a01b03199081163390811783556001805490921617905560078190556040805160e081018252828152602081018390529081018290526060810182905260808101829052603260a0820181905260c090910182905260088290556009805460ff19169055600a829055600b829055600c829055600d55600e5561292e8061009d5f395ff3fe6080604052600436106101b2575f3560e01c80638da5cb5b116100e7578063d0ec6eb111610087578063e86ba67a11610062578063e86ba67a14610518578063f6d361cc1461052c578063f8806a1314610546578063fc8e750414610575575f5ffd5b8063d0ec6eb1146104d1578063d829055e146104f0578063dae73b9814610504575f5ffd5b8063a44ef7f3116100c2578063a44ef7f314610466578063b0ee969014610493578063c617b26a146104b2578063c7761fab1461023a575f5ffd5b80638da5cb5b146104295780639135e50b146104475780639ec296f2146103cd575f5ffd5b8063404e4520116101525780637503e1b71161012d5780637503e1b714610353578063797617a2146103ae578063843cbbc6146103cd5780638d824273146103e1575f5ffd5b8063404e4520146102fc57806341d35582146103105780634385963214610324575f5ffd5b80631a774e541161018d5780631a774e541461023a57806326f7519a1461025c5780632f50d6dc146102885780633155d2ee146102cc575f5ffd5b80630fe818dd146101bd578063150eb5b8146101d25780631a5bd7fc1461020e575f5ffd5b366101b957005b5f5ffd5b6101d06101cb3660046122b5565b61058a565b005b3480156101dd575f5ffd5b506001546101f1906001600160a01b031681565b6040516001600160a01b0390911681526020015b60405180910390f35b348015610219575f5ffd5b5061022d610228366004612396565b610a8a565b60405161020591906123d5565b348015610245575f5ffd5b5061024e603281565b604051908152602001610205565b348015610267575f5ffd5b5061027b610276366004612396565b610b86565b604051610205919061246c565b348015610293575f5ffd5b50600854600954600a54600b54600c54600d54600e546102b9969560ff16949392919087565b6040516102059796959493929190612485565b3480156102d7575f5ffd5b506102eb6102e63660046124d8565b610bef565b6040516102059594939291906125a3565b348015610307575f5ffd5b506101d0610f5e565b34801561031b575f5ffd5b5061024e60c881565b34801561032f575f5ffd5b5061034361033e36600461262b565b610fae565b6040519015158152602001610205565b34801561035e575f5ffd5b506102b961036d366004612396565b600360208190525f91825260409091208054600182015460028301549383015460048401546005850154600690950154939560ff9093169492939192909187565b3480156103b9575f5ffd5b506101d06103c8366004612396565b610fdd565b3480156103d8575f5ffd5b5061024e600a81565b3480156103ec575f5ffd5b506104146103fb366004612396565b5f90815260056020526040902080546002909101549091565b60408051928352602083019190915201610205565b348015610434575f5ffd5b505f546101f1906001600160a01b031681565b348015610452575f5ffd5b506101d06104613660046124d8565b61111b565b348015610471575f5ffd5b50610485610480366004612396565b61120d565b604051610205929190612655565b34801561049e575f5ffd5b506101f16104ad366004612682565b61133b565b3480156104bd575f5ffd5b5061024e6104cc36600461262b565b61136f565b3480156104dc575f5ffd5b506101d06104eb3660046126a2565b6113f7565b3480156104fb575f5ffd5b5061022d61170b565b34801561050f575f5ffd5b506101d06117bf565b348015610523575f5ffd5b5061024e601e81565b348015610537575f5ffd5b5061024e662386f26fc1000081565b348015610551575f5ffd5b506105656105603660046124d8565b61197f565b6040516102059493929190612702565b348015610580575f5ffd5b5061024e60075481565b5f60095460ff1660038111156105a2576105a26123ad565b146105ea5760405162461bcd60e51b81526020600482015260136024820152722737ba1034b7103932b3b4b9ba3930ba34b7b760691b60448201526064015b60405180910390fd5b662386f26fc100003410156106415760405162461bcd60e51b815260206004820152601660248201527f496e73756666696369656e7420656e747279206665650000000000000000000060448201526064016105e1565b848314801561064f57508281145b801561065a57508088145b6106a65760405162461bcd60e51b815260206004820152601160248201527f4d69736d6174636865642061727261797300000000000000000000000000000060448201526064016105e1565b600a8511156106f75760405162461bcd60e51b815260206004820152600e60248201527f546f6f206d616e792072756c657300000000000000000000000000000000000060448201526064016105e1565b335f908152600260208190526040909120015460ff161561075a5760405162461bcd60e51b815260206004820152601a60248201527f537472617465677920616c7265616479207375626d697474656400000000000060448201526064016105e1565b335f90815260026020526040812061077191612158565b335f908152600260208190526040909120908101805460ff1916600117905561079988611b7c565b6001808301829055546107b591906001600160a01b0316611b8b565b505f5b86811015610999576108168888838181106107d5576107d561274e565b90506020020160208101906107ea9190612762565b8787848181106107fc576107fc61274e565b90506020020160208101906108119190612780565b611b9d565b5f6108468c8c8481811061082c5761082c61274e565b9050602002016020810190610841919061279e565b611b7c565b6001549091506108609082906001600160a01b0316611b8b565b50825f0160405180608001604052808b8b868181106108815761088161274e565b90506020020160208101906108969190612762565b60058111156108a7576108a76123ad565b81526020018989868181106108be576108be61274e565b90506020020160208101906108d39190612780565b60048111156108e4576108e46123ad565b81526020018787868181106108fb576108fb61274e565b602090810292909201358352509081018490528254600181810185555f9485529190932082516003909402018054929390929091839160ff191690836005811115610948576109486123ad565b021790555060208201518154829061ff001916610100836004811115610970576109706123ad565b0217905550604082015181600101556060820151816002015550505080806001019150506107b8565b506007545f9081526004602090815260408220805460018101825590835290822001805473ffffffffffffffffffffffffffffffffffffffff191633179055600b8054916109e6836127cb565b91905055503460086006015f8282546109ff91906127e3565b90915550506007545f908152600560205260409020600b54606490610a26906032906127f6565b610a30919061280d565b60028083018290551115610a45576002818101555b60075460405190815233907f7f996dafed49a846774861911b5a7125b3f1ade25d0e4cfb9143679dea83ff249060200160405180910390a25050505050505050505050565b610ac56040805160e081019091525f808252602082019081526020015f81526020015f81526020015f81526020015f81526020015f81525090565b6007548203610b48576040805160e08101909152600880548252600954602083019060ff166003811115610afb57610afb6123ad565b6003811115610b0c57610b0c6123ad565b81526002820154602082015260038201546040820152600482015460608201526005820154608082015260069091015460a09091015292915050565b5f82815260036020818152604092839020835160e0810190945280548452600181015490929184019160ff90911690811115610afb57610afb6123ad565b5f81815260046020908152604091829020805483518184028101840190945280845260609392830182828015610be357602002820191905f5260205f20905b81546001600160a01b03168152600190910190602001808311610bc5575b50505050509050919050565b6001546060905f908290819081906001600160a01b0316331480610c1c57505f546001600160a01b031633145b610c565760405162461bcd60e51b815260206004820152600b60248201526a4f6e6c79206f7261636c6560a81b60448201526064016105e1565b6001600160a01b0386165f9081526002602081905260409091209081015460ff16610cc35760405162461bcd60e51b815260206004820152601560248201527f4e6f207374726174656779207375626d6974746564000000000000000000000060448201526064016105e1565b80548067ffffffffffffffff811115610cde57610cde61282c565b604051908082528060200260200182016040528015610d07578160200160208202803683370190505b5096508067ffffffffffffffff811115610d2357610d2361282c565b604051908082528060200260200182016040528015610d4c578160200160208202803683370190505b5094508067ffffffffffffffff811115610d6857610d6861282c565b604051908082528060200260200182016040528015610d91578160200160208202803683370190505b5093508067ffffffffffffffff811115610dad57610dad61282c565b604051908082528060200260200182016040528015610dd6578160200160208202803683370190505b5092505f5b81811015610f4c57825f018181548110610df757610df761274e565b905f5260205f20906003020160020154888281518110610e1957610e1961274e565b602002602001018181525050825f018181548110610e3957610e3961274e565b5f918252602090912060039091020154865160ff90911690879083908110610e6357610e6361274e565b60200260200101906005811115610e7c57610e7c6123ad565b90816005811115610e8f57610e8f6123ad565b9052508254839082908110610ea657610ea661274e565b905f5260205f2090600302015f0160019054906101000a900460ff16858281518110610ed457610ed461274e565b60200260200101906004811115610eed57610eed6123ad565b90816004811115610f0057610f006123ad565b9052508254839082908110610f1757610f1761274e565b905f5260205f20906003020160010154848281518110610f3957610f3961274e565b6020908102919091010152600101610ddb565b50506001015494969495509193909250565b5f546001600160a01b03163314610fa45760405162461bcd60e51b815260206004820152600a60248201526927b7363c9037bbb732b960b11b60448201526064016105e1565b610fac611d02565b565b5f8281526005602090815260408083206001600160a01b038516845260010190915290205460ff165b92915050565b5f546001600160a01b031633146110235760405162461bcd60e51b815260206004820152600a60248201526927b7363c9037bbb732b960b11b60448201526064016105e1565b5f60095460ff16600381111561103b5761103b6123ad565b1461107e5760405162461bcd60e51b81526020600482015260136024820152722737ba1034b7103932b3b4b9ba3930ba34b7b760691b60448201526064016105e1565b600a8110158015611090575060c88111155b6110dc5760405162461bcd60e51b815260206004820152600e60248201527f496e76616c696420726f756e647300000000000000000000000000000000000060448201526064016105e1565b600d8190556007546040518281527f9ca488ee3ab8666b1354449cfe3927640726b3ff1b87c8ffce772a7594034650906020015b60405180910390a250565b5f546001600160a01b031633146111615760405162461bcd60e51b815260206004820152600a60248201526927b7363c9037bbb732b960b11b60448201526064016105e1565b6001600160a01b0381166111b75760405162461bcd60e51b815260206004820152600e60248201527f496e76616c6964206f7261636c6500000000000000000000000000000000000060448201526064016105e1565b6001805473ffffffffffffffffffffffffffffffffffffffff19166001600160a01b0383169081179091556040517f2fd2b8fed5a6bb25ab7a2bdf98499d74ec6c0dd362012ceed5c90626dc3a8ac5905f90a250565b5f81815260066020526040902060030154606090819060ff166112725760405162461bcd60e51b815260206004820152601960248201527f526573756c7473206e6f74207075626c6973686564207965740000000000000060448201526064016105e1565b5f8381526006602090815260409182902060018101805484518185028101850190955280855291939092600285019284918301828280156112da57602002820191905f5260205f20905b81546001600160a01b031681526001909101906020018083116112bc575b505050505091508080548060200260200160405190810160405280929190818152602001828054801561132a57602002820191905f5260205f20905b815481526020019060010190808311611316575b505050505090509250925050915091565b6004602052815f5260405f208181548110611354575f80fd5b5f918252602090912001546001600160a01b03169150829050565b5f8281526006602052604081206003015460ff166113cf5760405162461bcd60e51b815260206004820152601960248201527f526573756c7473206e6f74207075626c6973686564207965740000000000000060448201526064016105e1565b505f9182526006602090815260408084206001600160a01b0393909316845291905290205490565b6001546001600160a01b031633148061141957505f546001600160a01b031633145b6114535760405162461bcd60e51b815260206004820152600b60248201526a4f6e6c79206f7261636c6560a81b60448201526064016105e1565b60075489146114a45760405162461bcd60e51b815260206004820152601260248201527f496e76616c696420746f75726e616d656e74000000000000000000000000000060448201526064016105e1565b600160095460ff1660038111156114bd576114bd6123ad565b1461150a5760405162461bcd60e51b815260206004820152600b60248201527f4e6f742070656e64696e6700000000000000000000000000000000000000000060448201526064016105e1565b8685146115595760405162461bcd60e51b815260206004820152601160248201527f4d69736d6174636865642061727261797300000000000000000000000000000060448201526064016105e1565b8281146115a85760405162461bcd60e51b815260206004820152601160248201527f4d69736d617463686564207072697a657300000000000000000000000000000060448201526064016105e1565b5f898152600660205260409020600381015460ff161561160a5760405162461bcd60e51b815260206004820152601160248201527f416c7265616479207075626c697368656400000000000000000000000000000060448201526064016105e1565b5f5b88811015611679578787828181106116265761162661274e565b90506020020135825f015f8c8c858181106116435761164361274e565b905060200201602081019061165891906124d8565b6001600160a01b0316815260208101919091526040015f205560010161160c565b50611688600182018686612176565b506116976002820184846121e4565b5060038101805460ff199081166001179091556009805490911660021790556040518a907f19e48af67fca3cde658dbcc800b2c2ac6bea36379321c5557c4b8ba0c1662150906116ee908890889088908890612840565b60405180910390a26116ff8a611e2c565b50505050505050505050565b6117466040805160e081019091525f808252602082019081526020015f81526020015f81526020015f81526020015f81526020015f81525090565b6040805160e08101909152600880548252600954602083019060ff166003811115611773576117736123ad565b6003811115611784576117846123ad565b815260200160028201548152602001600382015481526020016004820154815260200160058201548152602001600682015481525050905090565b5f60095460ff1660038111156117d7576117d76123ad565b1461181a5760405162461bcd60e51b81526020600482015260136024820152722737ba1034b7103932b3b4b9ba3930ba34b7b760691b60448201526064016105e1565b335f908152600260208190526040909120015460ff1661187c5760405162461bcd60e51b815260206004820152601c60248201527f4d757374207375626d697420737472617465677920746f20766f74650000000060448201526064016105e1565b6007545f908152600560209081526040808320338452600181019092529091205460ff16156118ed5760405162461bcd60e51b815260206004820152600d60248201527f416c726561647920766f7465640000000000000000000000000000000000000060448201526064016105e1565b335f908152600182810160205260408220805460ff191690911790558154908290611917836127cb565b9091555050600754815460028301546040513393927f0271f53eebbe20450d9578f28ec279231556c34545b30e2278d754ffd39cd63c9261196092918252602082015260400190565b60405180910390a3600281015481541061197c5761197c611d02565b50565b6001600160a01b0381165f9081526002602052604081208054606092839283928067ffffffffffffffff8111156119b8576119b861282c565b6040519080825280602002602001820160405280156119e1578160200160208202803683370190505b5095508067ffffffffffffffff8111156119fd576119fd61282c565b604051908082528060200260200182016040528015611a26578160200160208202803683370190505b5094508067ffffffffffffffff811115611a4257611a4261282c565b604051908082528060200260200182016040528015611a6b578160200160208202803683370190505b5093505f5b81811015611b67575f835f018281548110611a8d57611a8d61274e565b5f91825260209091206003909102018054895191925060ff1690899084908110611ab957611ab961274e565b60200260200101906005811115611ad257611ad26123ad565b90816005811115611ae557611ae56123ad565b81525050805f0160019054906101000a900460ff16878381518110611b0c57611b0c61274e565b60200260200101906004811115611b2557611b256123ad565b90816004811115611b3857611b386123ad565b815250508060010154868381518110611b5357611b5361274e565b602090810291909101015250600101611a70565b5050600201549395929450909260ff16919050565b5f610fd78260ff166002611f7c565b5f611b968383612039565b5090919050565b6001826005811115611bb157611bb16123ad565b1480611bce57506002826005811115611bcc57611bcc6123ad565b145b15611c5d575f816004811115611be657611be66123ad565b1480611c0357506001816004811115611c0157611c016123ad565b145b611c595760405162461bcd60e51b815260206004820152602160248201527f496e76616c6964206f70657261746f7220666f72206d6f7665207375626a65636044820152601d60fa1b60648201526084016105e1565b5050565b6004816004811115611c7157611c716123ad565b1480611c8e57506002816004811115611c8c57611c8c6123ad565b145b80611caa57506003816004811115611ca857611ca86123ad565b145b611c595760405162461bcd60e51b8152602060048201526024808201527f496e76616c6964206f70657261746f7220666f72206e756d65726963207375626044820152631a9958dd60e21b60648201526084016105e1565b5f60095460ff166003811115611d1a57611d1a6123ad565b14611d675760405162461bcd60e51b815260206004820152600e60248201527f496e76616c69642073746174757300000000000000000000000000000000000060448201526064016105e1565b600b5460021115611dba5760405162461bcd60e51b815260206004820152601760248201527f4e656564206174206c65617374203220706c617965727300000000000000000060448201526064016105e1565b6009805460ff1916600190811790915542600a55600b5490600290611ddf90836128d3565b611de990836127f6565b611df3919061280d565b600c55600754600b546040519081527fbc7efbd054762c7024dd5838b4eef6be3c9982e8a7397e2b3949e1b52263a61c90602001611110565b5f818152600660205260408120905b6001820154811015611ec857816001018181548110611e5c57611e5c61274e565b5f918252602090912001546002830180546001600160a01b03909216916108fc919084908110611e8e57611e8e61274e565b905f5260205f20015490811502906040515f60405180830381858888f19350505050158015611ebf573d5f5f3e3d5ffd5b50600101611e3b565b5060098054600360ff19918216811783555f858152602082905260409020600880548255935460018281018054939560ff909316949093909216918490811115611f1457611f146123ad565b02179055506002828101549082015560038083015490820155600480830154908201556005808301549082015560069182015491015560405182907fe3416bedc8b1254602d8c58495d878a5c5b3ca4aaf8b5ac27f682b30036ed3ef905f90a2611c596120c2565b7f9e7b61f58c47dc699ac88507c4f5bb9f121c03808c5676a8078fe583e464970154604051639cd07acb60e01b81525f917f9e7b61f58c47dc699ac88507c4f5bb9f121c03808c5676a8078fe583e4649700916001600160a01b0390911690639cd07acb90611ff190879087906004016128e6565b6020604051808303815f875af115801561200d573d5f5f3e3d5ffd5b505050506040513d601f19601f82011682018060405250810190612031919061290a565b949350505050565b5f7f9e7b61f58c47dc699ac88507c4f5bb9f121c03808c5676a8078fe583e46497008054604051630f8e573b60e21b8152600481018690526001600160a01b038581166024830152929350911690633e395cec906044015f604051808303815f87803b1580156120a7575f5ffd5b505af11580156120b9573d5f5f3e3d5ffd5b50505050505050565b60078054600101908190556040805160e0810182528281525f602082018190528183018190526060820181905260808201819052603260a0830181905260c090920181905260088490556009805460ff19169055600a819055600b819055600c819055600d91909155600e81905590517f113d32d0b7aec15a8c7f50af4cb42f4695e5b95524ed69519ac88d6c1f1f40f69190a2565b5080545f8255600302905f5260205f209081019061197c919061221d565b828054828255905f5260205f209081019282156121d4579160200282015b828111156121d457815473ffffffffffffffffffffffffffffffffffffffff19166001600160a01b03843516178255602090920191600190910190612194565b506121e0929150612244565b5090565b828054828255905f5260205f209081019282156121d4579160200282015b828111156121d4578235825591602001919060010190612202565b5b808211156121e057805461ffff191681555f60018201819055600282015560030161221e565b5b808211156121e0575f8155600101612245565b5f5f83601f840112612268575f5ffd5b50813567ffffffffffffffff81111561227f575f5ffd5b6020830191508360208260051b8501011115612299575f5ffd5b9250929050565b803560ff811681146122b0575f5ffd5b919050565b5f5f5f5f5f5f5f5f5f60a08a8c0312156122cd575f5ffd5b893567ffffffffffffffff8111156122e3575f5ffd5b6122ef8c828d01612258565b909a509850612302905060208b016122a0565b965060408a013567ffffffffffffffff81111561231d575f5ffd5b6123298c828d01612258565b90975095505060608a013567ffffffffffffffff811115612348575f5ffd5b6123548c828d01612258565b90955093505060808a013567ffffffffffffffff811115612373575f5ffd5b61237f8c828d01612258565b915080935050809150509295985092959850929598565b5f602082840312156123a6575f5ffd5b5035919050565b634e487b7160e01b5f52602160045260245ffd5b600481106123d1576123d16123ad565b9052565b8151815260208083015160e08301916123f0908401826123c1565b5060408301516040830152606083015160608301526080830151608083015260a083015160a083015260c083015160c083015292915050565b5f8151808452602084019350602083015f5b828110156124625781516001600160a01b031686526020958601959091019060010161243b565b5093949350505050565b602081525f61247e6020830184612429565b9392505050565b87815260e0810161249960208301896123c1565b60408201969096526060810194909452608084019290925260a083015260c09091015292915050565b80356001600160a01b03811681146122b0575f5ffd5b5f602082840312156124e8575f5ffd5b61247e826124c2565b5f8151808452602084019350602083015f5b828110156124625781516006811061251d5761251d6123ad565b86526020958601959190910190600101612503565b5f8151808452602084019350602083015f5b828110156124625781516005811061255e5761255e6123ad565b86526020958601959190910190600101612544565b5f8151808452602084019350602083015f5b82811015612462578151865260209586019590910190600101612585565b60a080825286519082018190525f90602088019060c0840190835b818110156125dc5783518352602093840193909201916001016125be565b505087602085015283810360408501526125f681886124f1565b915050828103606084015261260b8186612532565b9050828103608084015261261f8185612573565b98975050505050505050565b5f5f6040838503121561263c575f5ffd5b8235915061264c602084016124c2565b90509250929050565b604081525f6126676040830185612429565b82810360208401526126798185612573565b95945050505050565b5f5f60408385031215612693575f5ffd5b50508035926020909101359150565b5f5f5f5f5f5f5f5f5f60a08a8c0312156126ba575f5ffd5b8935985060208a013567ffffffffffffffff8111156126d7575f5ffd5b6126e38c828d01612258565b90995097505060408a013567ffffffffffffffff81111561231d575f5ffd5b608081525f61271460808301876124f1565b82810360208401526127268187612532565b9050828103604084015261273a8186612573565b915050821515606083015295945050505050565b634e487b7160e01b5f52603260045260245ffd5b5f60208284031215612772575f5ffd5b81356006811061247e575f5ffd5b5f60208284031215612790575f5ffd5b81356005811061247e575f5ffd5b5f602082840312156127ae575f5ffd5b61247e826122a0565b634e487b7160e01b5f52601160045260245ffd5b5f600182016127dc576127dc6127b7565b5060010190565b80820180821115610fd757610fd76127b7565b8082028115828204841417610fd757610fd76127b7565b5f8261282757634e487b7160e01b5f52601260045260245ffd5b500490565b634e487b7160e01b5f52604160045260245ffd5b604080825281018490525f8560608301825b87811015612880576001600160a01b0361286b846124c2565b16825260209283019290910190600101612852565b5083810360208501528481527f07ffffffffffffffffffffffffffffffffffffffffffffffffffffffffffffff8511156128b8575f5ffd5b8460051b915081866020830137016020019695505050505050565b81810381811115610fd757610fd76127b7565b82815260408101605483106128fd576128fd6123ad565b8260208301529392505050565b5f6020828403121561291a575f5ffd5b505191905056fea164736f6c634300081b000a",
  "linkReferences": {},
  "deployedLinkReferences": {}
}